{
  "_format": "hh-sol-artifact-1",
  "contractName": "GameContract",
  "sourceName": "contracts/GameContract.sol",
  "abi": [
    {
      "inputs": [
        {
          "internalType": "uint256",
          "name": "_rewardPercent",
          "type": "uint256"
        },
        {
          "internalType": "uint256",
          "name": "_rewardAmount",
          "type": "uint256"
        },
        {
          "internalType": "address",
          "name": "_stakingToken",
          "type": "address"
        },
        {
          "internalType": "address",
          "name": "_stakingContract",
          "type": "address"
        },
        {
          "internalType": "bytes32",
          "name": "_secretKey",
          "type": "bytes32"
        }
      ],
      "stateMutability": "nonpayable",
      "type": "constructor"
    },
    {
      "inputs": [],
      "name": "Error__AlreadyPlayed",
      "type": "error"
    },
    {
      "inputs": [],
      "name": "Error__NotPlayed",
      "type": "error"
    },
    {
      "anonymous": false,
      "inputs": [
        {
          "indexed": false,
          "internalType": "address",
          "name": "player",
          "type": "address"
        },
        {
          "indexed": false,
          "internalType": "uint256",
          "name": "startTime",
          "type": "uint256"
        },
        {
          "indexed": false,
          "internalType": "bytes32",
          "name": "codedWord",
          "type": "bytes32"
        }
      ],
      "name": "GameStarted",
      "type": "event"
    },
    {
      "anonymous": false,
      "inputs": [
        {
          "indexed": true,
          "internalType": "address",
          "name": "player",
          "type": "address"
        },
        {
          "indexed": true,
          "internalType": "bool",
          "name": "isWon",
          "type": "bool"
        },
        {
          "indexed": true,
          "internalType": "uint256",
          "name": "_amountWon",
          "type": "uint256"
        }
      ],
      "name": "PlayedGame",
      "type": "event"
    },
    {
      "inputs": [],
      "name": "REWARD_AMOUNT",
      "outputs": [
        {
          "internalType": "uint256",
          "name": "",
          "type": "uint256"
        }
      ],
      "stateMutability": "view",
      "type": "function"
    },
    {
      "inputs": [],
      "name": "REWARD_PERCENTAGE",
      "outputs": [
        {
          "internalType": "uint256",
          "name": "",
          "type": "uint256"
        }
      ],
      "stateMutability": "view",
      "type": "function"
    },
    {
      "inputs": [
        {
          "internalType": "string",
          "name": "_word",
          "type": "string"
        }
      ],
      "name": "encryptWord",
      "outputs": [
        {
          "internalType": "bytes32",
          "name": "",
          "type": "bytes32"
        }
      ],
      "stateMutability": "view",
      "type": "function"
    },
    {
      "inputs": [],
      "name": "fetchPlayerInfo",
      "outputs": [
        {
          "internalType": "bytes32",
          "name": "",
          "type": "bytes32"
        },
        {
          "internalType": "uint256",
          "name": "",
          "type": "uint256"
        }
      ],
      "stateMutability": "view",
      "type": "function"
    },
    {
      "inputs": [],
      "name": "fetchWinners",
      "outputs": [
        {
          "internalType": "address[]",
          "name": "",
          "type": "address[]"
        }
      ],
      "stateMutability": "view",
      "type": "function"
    },
    {
      "inputs": [
        {
          "internalType": "bytes32",
          "name": "_encryptedWord",
          "type": "bytes32"
        },
        {
          "internalType": "string",
          "name": "_word",
          "type": "string"
        }
      ],
      "name": "isCorrect",
      "outputs": [
        {
          "internalType": "bool",
          "name": "",
          "type": "bool"
        }
      ],
      "stateMutability": "view",
      "type": "function"
    },
    {
      "inputs": [
        {
          "internalType": "bytes32",
          "name": "_encryptedWord",
          "type": "bytes32"
        },
        {
          "internalType": "string",
          "name": "_word",
          "type": "string"
        }
      ],
      "name": "playedGame",
      "outputs": [
        {
          "internalType": "bool",
          "name": "",
          "type": "bool"
        }
      ],
      "stateMutability": "nonpayable",
      "type": "function"
    },
    {
      "inputs": [],
      "name": "s_stakingContract",
      "outputs": [
        {
          "internalType": "contract IStaking",
          "name": "",
          "type": "address"
        }
      ],
      "stateMutability": "view",
      "type": "function"
    },
    {
      "inputs": [],
      "name": "s_stakingToken",
      "outputs": [
        {
          "internalType": "contract IERC20",
          "name": "",
          "type": "address"
        }
      ],
      "stateMutability": "view",
      "type": "function"
    },
    {
      "inputs": [
        {
          "internalType": "bytes32",
          "name": "_codedWord",
          "type": "bytes32"
        }
      ],
      "name": "startGame",
      "outputs": [],
      "stateMutability": "nonpayable",
      "type": "function"
    }
  ],
  "bytecode": "0x6101206040523480156200001257600080fd5b5060405162001380380380620013808339818101604052810190620000389190620001a6565b808060808181525050508460e081815250508360c081815250508273ffffffffffffffffffffffffffffffffffffffff1660a08173ffffffffffffffffffffffffffffffffffffffff16815250508173ffffffffffffffffffffffffffffffffffffffff166101008173ffffffffffffffffffffffffffffffffffffffff168152505050505050506200022e565b600080fd5b6000819050919050565b620000e081620000cb565b8114620000ec57600080fd5b50565b6000815190506200010081620000d5565b92915050565b600073ffffffffffffffffffffffffffffffffffffffff82169050919050565b6000620001338262000106565b9050919050565b620001458162000126565b81146200015157600080fd5b50565b60008151905062000165816200013a565b92915050565b6000819050919050565b62000180816200016b565b81146200018c57600080fd5b50565b600081519050620001a08162000175565b92915050565b600080600080600060a08688031215620001c557620001c4620000c6565b5b6000620001d588828901620000ef565b9550506020620001e888828901620000ef565b9450506040620001fb8882890162000154565b93505060606200020e8882890162000154565b925050608062000221888289016200018f565b9150509295509295909350565b60805160a05160c05160e051610100516110e36200029d60003960008181610371015261051e0152600081816105bf01526108a9015260008181610749015281816107cc01526108850152600081816105f60152818161070c01526108610152600061020901526110e36000f3fe608060405234801561001057600080fd5b506004361061009e5760003560e01c806383df1b6c1161006657806383df1b6c1461014a578063a794ca1d1461017a578063adca9b72146101aa578063cf849442146101c8578063fc72b1ed146101e65761009e565b8063195d7de6146100a357806333681bcd146100d357806342ee6a52146100f157806344aaaca4146101105780634c92fb121461012e575b600080fd5b6100bd60048036038101906100b89190610a25565b610204565b6040516100ca9190610a87565b60405180910390f35b6100db610256565b6040516100e89190610b92565b60405180910390f35b6100f96102e4565b604051610107929190610bcd565b60405180910390f35b61011861036f565b6040516101259190610c55565b60405180910390f35b61014860048036038101906101439190610c9c565b610393565b005b610164600480360381019061015f9190610cc9565b610459565b6040516101719190610d40565b60405180910390f35b610194600480360381019061018f9190610cc9565b610845565b6040516101a19190610d40565b60405180910390f35b6101b261085f565b6040516101bf9190610d7c565b60405180910390f35b6101d0610883565b6040516101dd9190610d97565b60405180910390f35b6101ee6108a7565b6040516101fb9190610d97565b60405180910390f35b6000817f0000000000000000000000000000000000000000000000000000000000000000604051602001610239929190610e44565b604051602081830303815290604052805190602001209050919050565b606060008054806020026020016040519081016040528092919081815260200182805480156102da57602002820191906000526020600020905b8160009054906101000a900473ffffffffffffffffffffffffffffffffffffffff1673ffffffffffffffffffffffffffffffffffffffff1681526020019060010190808311610290575b5050505050905090565b600080600160003373ffffffffffffffffffffffffffffffffffffffff1673ffffffffffffffffffffffffffffffffffffffff16815260200190815260200160002054600260003373ffffffffffffffffffffffffffffffffffffffff1673ffffffffffffffffffffffffffffffffffffffff16815260200190815260200160002054915091509091565b7f000000000000000000000000000000000000000000000000000000000000000081565b80600160003373ffffffffffffffffffffffffffffffffffffffff1673ffffffffffffffffffffffffffffffffffffffff1681526020019081526020016000208190555042600260003373ffffffffffffffffffffffffffffffffffffffff1673ffffffffffffffffffffffffffffffffffffffff168152602001908152602001600020819055507f8281d991933d615eef838d86c8422cf741a5b121f8451312e6be5905a71ac89133428360405161044e93929190610e7b565b60405180910390a150565b6000804203610494576040517f39fe881300000000000000000000000000000000000000000000000000000000815260040160405180910390fd5b62015180600260003373ffffffffffffffffffffffffffffffffffffffff1673ffffffffffffffffffffffffffffffffffffffff168152602001908152602001600020546104e29190610ee1565b421061051a576040517f57c6b63600000000000000000000000000000000000000000000000000000000815260040160405180910390fd5b60007f000000000000000000000000000000000000000000000000000000000000000073ffffffffffffffffffffffffffffffffffffffff1663399080ec336040518263ffffffff1660e01b81526004016105759190610f15565b602060405180830381865afa158015610592573d6000803e3d6000fd5b505050506040513d601f19601f820116820180604052508101906105b69190610f5c565b905060006064827f00000000000000000000000000000000000000000000000000000000000000006105e89190610f89565b6105f29190610ffa565b90507f000000000000000000000000000000000000000000000000000000000000000073ffffffffffffffffffffffffffffffffffffffff1663a9059cbb33836040518363ffffffff1660e01b815260040161064f92919061102b565b6020604051808303816000875af115801561066e573d6000803e3d6000fd5b505050506040513d601f19601f820116820180604052508101906106929190611080565b50600061069f8686610845565b905080156107ca576000339080600181540180825580915050600190039060005260206000200160009091909190916101000a81548173ffffffffffffffffffffffffffffffffffffffff021916908373ffffffffffffffffffffffffffffffffffffffff1602179055507f000000000000000000000000000000000000000000000000000000000000000073ffffffffffffffffffffffffffffffffffffffff1663a9059cbb337f00000000000000000000000000000000000000000000000000000000000000006040518363ffffffff1660e01b815260040161078592919061102b565b6020604051808303816000875af11580156107a4573d6000803e3d6000fd5b505050506040513d601f19601f820116820180604052508101906107c89190611080565b505b7f0000000000000000000000000000000000000000000000000000000000000000826107f69190610ee1565b8115153373ffffffffffffffffffffffffffffffffffffffff167fbde6b4006abec5676f0f65e3aa881d1e2ce3fb81208600b3100c098aa1ead85760405160405180910390a450505092915050565b60008061085183610204565b905083811491505092915050565b7f000000000000000000000000000000000000000000000000000000000000000081565b7f000000000000000000000000000000000000000000000000000000000000000081565b7f000000000000000000000000000000000000000000000000000000000000000081565b6000604051905090565b600080fd5b600080fd5b600080fd5b600080fd5b6000601f19601f8301169050919050565b7f4e487b7100000000000000000000000000000000000000000000000000000000600052604160045260246000fd5b610932826108e9565b810181811067ffffffffffffffff82111715610951576109506108fa565b5b80604052505050565b60006109646108cb565b90506109708282610929565b919050565b600067ffffffffffffffff8211156109905761098f6108fa565b5b610999826108e9565b9050602081019050919050565b82818337600083830152505050565b60006109c86109c384610975565b61095a565b9050828152602081018484840111156109e4576109e36108e4565b5b6109ef8482856109a6565b509392505050565b600082601f830112610a0c57610a0b6108df565b5b8135610a1c8482602086016109b5565b91505092915050565b600060208284031215610a3b57610a3a6108d5565b5b600082013567ffffffffffffffff811115610a5957610a586108da565b5b610a65848285016109f7565b91505092915050565b6000819050919050565b610a8181610a6e565b82525050565b6000602082019050610a9c6000830184610a78565b92915050565b600081519050919050565b600082825260208201905092915050565b6000819050602082019050919050565b600073ffffffffffffffffffffffffffffffffffffffff82169050919050565b6000610af982610ace565b9050919050565b610b0981610aee565b82525050565b6000610b1b8383610b00565b60208301905092915050565b6000602082019050919050565b6000610b3f82610aa2565b610b498185610aad565b9350610b5483610abe565b8060005b83811015610b85578151610b6c8882610b0f565b9750610b7783610b27565b925050600181019050610b58565b5085935050505092915050565b60006020820190508181036000830152610bac8184610b34565b905092915050565b6000819050919050565b610bc781610bb4565b82525050565b6000604082019050610be26000830185610a78565b610bef6020830184610bbe565b9392505050565b6000819050919050565b6000610c1b610c16610c1184610ace565b610bf6565b610ace565b9050919050565b6000610c2d82610c00565b9050919050565b6000610c3f82610c22565b9050919050565b610c4f81610c34565b82525050565b6000602082019050610c6a6000830184610c46565b92915050565b610c7981610a6e565b8114610c8457600080fd5b50565b600081359050610c9681610c70565b92915050565b600060208284031215610cb257610cb16108d5565b5b6000610cc084828501610c87565b91505092915050565b60008060408385031215610ce057610cdf6108d5565b5b6000610cee85828601610c87565b925050602083013567ffffffffffffffff811115610d0f57610d0e6108da565b5b610d1b858286016109f7565b9150509250929050565b60008115159050919050565b610d3a81610d25565b82525050565b6000602082019050610d556000830184610d31565b92915050565b6000610d6682610c22565b9050919050565b610d7681610d5b565b82525050565b6000602082019050610d916000830184610d6d565b92915050565b6000602082019050610dac6000830184610bbe565b92915050565b600081519050919050565b600081905092915050565b60005b83811015610de6578082015181840152602081019050610dcb565b60008484015250505050565b6000610dfd82610db2565b610e078185610dbd565b9350610e17818560208601610dc8565b80840191505092915050565b6000819050919050565b610e3e610e3982610a6e565b610e23565b82525050565b6000610e508285610df2565b9150610e5c8284610e2d565b6020820191508190509392505050565b610e7581610aee565b82525050565b6000606082019050610e906000830186610e6c565b610e9d6020830185610bbe565b610eaa6040830184610a78565b949350505050565b7f4e487b7100000000000000000000000000000000000000000000000000000000600052601160045260246000fd5b6000610eec82610bb4565b9150610ef783610bb4565b9250828201905080821115610f0f57610f0e610eb2565b5b92915050565b6000602082019050610f2a6000830184610e6c565b92915050565b610f3981610bb4565b8114610f4457600080fd5b50565b600081519050610f5681610f30565b92915050565b600060208284031215610f7257610f716108d5565b5b6000610f8084828501610f47565b91505092915050565b6000610f9482610bb4565b9150610f9f83610bb4565b9250828202610fad81610bb4565b91508282048414831517610fc457610fc3610eb2565b5b5092915050565b7f4e487b7100000000000000000000000000000000000000000000000000000000600052601260045260246000fd5b600061100582610bb4565b915061101083610bb4565b9250826110205761101f610fcb565b5b828204905092915050565b60006040820190506110406000830185610e6c565b61104d6020830184610bbe565b9392505050565b61105d81610d25565b811461106857600080fd5b50565b60008151905061107a81611054565b92915050565b600060208284031215611096576110956108d5565b5b60006110a48482850161106b565b9150509291505056fea2646970667358221220245d9974db7641f759976e4e40abc7ea383c15313ac8eb0dfe8eea02967f95c564736f6c63430008110033",
  "linkReferences": {},
  "deployedLinkReferences": {}
}