{
  "_format": "hh-sol-artifact-1",
  "contractName": "RewardItem",
  "sourceName": "contracts/RewardToken.sol",
  "abi": [
    {
      "inputs": [],
      "stateMutability": "nonpayable",
      "type": "constructor"
    },
    {
      "anonymous": false,
      "inputs": [
        {
          "indexed": true,
          "internalType": "address",
          "name": "owner",
          "type": "address"
        },
        {
          "indexed": true,
          "internalType": "address",
          "name": "approved",
          "type": "address"
        },
        {
          "indexed": true,
          "internalType": "uint256",
          "name": "tokenId",
          "type": "uint256"
        }
      ],
      "name": "Approval",
      "type": "event"
    },
    {
      "anonymous": false,
      "inputs": [
        {
          "indexed": true,
          "internalType": "address",
          "name": "owner",
          "type": "address"
        },
        {
          "indexed": true,
          "internalType": "address",
          "name": "operator",
          "type": "address"
        },
        {
          "indexed": false,
          "internalType": "bool",
          "name": "approved",
          "type": "bool"
        }
      ],
      "name": "ApprovalForAll",
      "type": "event"
    },
    {
      "anonymous": false,
      "inputs": [
        {
          "indexed": true,
          "internalType": "address",
          "name": "from",
          "type": "address"
        },
        {
          "indexed": true,
          "internalType": "address",
          "name": "to",
          "type": "address"
        },
        {
          "indexed": true,
          "internalType": "uint256",
          "name": "tokenId",
          "type": "uint256"
        }
      ],
      "name": "Transfer",
      "type": "event"
    },
    {
      "inputs": [
        {
          "internalType": "address",
          "name": "to",
          "type": "address"
        },
        {
          "internalType": "uint256",
          "name": "tokenId",
          "type": "uint256"
        }
      ],
      "name": "approve",
      "outputs": [],
      "stateMutability": "nonpayable",
      "type": "function"
    },
    {
      "inputs": [
        {
          "internalType": "address",
          "name": "player",
          "type": "address"
        },
        {
          "internalType": "string",
          "name": "_tokenURI",
          "type": "string"
        }
      ],
      "name": "awardItem",
      "outputs": [
        {
          "internalType": "uint256",
          "name": "",
          "type": "uint256"
        }
      ],
      "stateMutability": "nonpayable",
      "type": "function"
    },
    {
      "inputs": [
        {
          "internalType": "address",
          "name": "owner",
          "type": "address"
        }
      ],
      "name": "balanceOf",
      "outputs": [
        {
          "internalType": "uint256",
          "name": "",
          "type": "uint256"
        }
      ],
      "stateMutability": "view",
      "type": "function"
    },
    {
      "inputs": [
        {
          "internalType": "uint256",
          "name": "tokenId",
          "type": "uint256"
        }
      ],
      "name": "getApproved",
      "outputs": [
        {
          "internalType": "address",
          "name": "",
          "type": "address"
        }
      ],
      "stateMutability": "view",
      "type": "function"
    },
    {
      "inputs": [
        {
          "internalType": "address",
          "name": "owner",
          "type": "address"
        },
        {
          "internalType": "address",
          "name": "operator",
          "type": "address"
        }
      ],
      "name": "isApprovedForAll",
      "outputs": [
        {
          "internalType": "bool",
          "name": "",
          "type": "bool"
        }
      ],
      "stateMutability": "view",
      "type": "function"
    },
    {
      "inputs": [],
      "name": "name",
      "outputs": [
        {
          "internalType": "string",
          "name": "",
          "type": "string"
        }
      ],
      "stateMutability": "view",
      "type": "function"
    },
    {
      "inputs": [
        {
          "internalType": "uint256",
          "name": "tokenId",
          "type": "uint256"
        }
      ],
      "name": "ownerOf",
      "outputs": [
        {
          "internalType": "address",
          "name": "",
          "type": "address"
        }
      ],
      "stateMutability": "view",
      "type": "function"
    },
    {
      "inputs": [
        {
          "internalType": "uint256",
          "name": "itemId",
          "type": "uint256"
        }
      ],
      "name": "redeemItem",
      "outputs": [
        {
          "internalType": "bool",
          "name": "",
          "type": "bool"
        }
      ],
      "stateMutability": "nonpayable",
      "type": "function"
    },
    {
      "inputs": [
        {
          "internalType": "address",
          "name": "from",
          "type": "address"
        },
        {
          "internalType": "address",
          "name": "to",
          "type": "address"
        },
        {
          "internalType": "uint256",
          "name": "tokenId",
          "type": "uint256"
        }
      ],
      "name": "safeTransferFrom",
      "outputs": [],
      "stateMutability": "nonpayable",
      "type": "function"
    },
    {
      "inputs": [
        {
          "internalType": "address",
          "name": "from",
          "type": "address"
        },
        {
          "internalType": "address",
          "name": "to",
          "type": "address"
        },
        {
          "internalType": "uint256",
          "name": "tokenId",
          "type": "uint256"
        },
        {
          "internalType": "bytes",
          "name": "_data",
          "type": "bytes"
        }
      ],
      "name": "safeTransferFrom",
      "outputs": [],
      "stateMutability": "nonpayable",
      "type": "function"
    },
    {
      "inputs": [
        {
          "internalType": "address",
          "name": "operator",
          "type": "address"
        },
        {
          "internalType": "bool",
          "name": "approved",
          "type": "bool"
        }
      ],
      "name": "setApprovalForAll",
      "outputs": [],
      "stateMutability": "nonpayable",
      "type": "function"
    },
    {
      "inputs": [
        {
          "internalType": "bytes4",
          "name": "interfaceId",
          "type": "bytes4"
        }
      ],
      "name": "supportsInterface",
      "outputs": [
        {
          "internalType": "bool",
          "name": "",
          "type": "bool"
        }
      ],
      "stateMutability": "view",
      "type": "function"
    },
    {
      "inputs": [],
      "name": "symbol",
      "outputs": [
        {
          "internalType": "string",
          "name": "",
          "type": "string"
        }
      ],
      "stateMutability": "view",
      "type": "function"
    },
    {
      "inputs": [
        {
          "internalType": "uint256",
          "name": "tokenId",
          "type": "uint256"
        }
      ],
      "name": "tokenURI",
      "outputs": [
        {
          "internalType": "string",
          "name": "",
          "type": "string"
        }
      ],
      "stateMutability": "view",
      "type": "function"
    },
    {
      "inputs": [
        {
          "internalType": "address",
          "name": "from",
          "type": "address"
        },
        {
          "internalType": "address",
          "name": "to",
          "type": "address"
        },
        {
          "internalType": "uint256",
          "name": "tokenId",
          "type": "uint256"
        }
      ],
      "name": "transferFrom",
      "outputs": [],
      "stateMutability": "nonpayable",
      "type": "function"
    }
  ],
  "bytecode": "0x60806040523480156200001157600080fd5b506040518060400160405280600a81526020017f5265776172644974656d000000000000000000000000000000000000000000008152506040518060400160405280600281526020017f545700000000000000000000000000000000000000000000000000000000000081525081600090816200008f919062000324565b508060019081620000a1919062000324565b5050506200040b565b600081519050919050565b7f4e487b7100000000000000000000000000000000000000000000000000000000600052604160045260246000fd5b7f4e487b7100000000000000000000000000000000000000000000000000000000600052602260045260246000fd5b600060028204905060018216806200012c57607f821691505b602082108103620001425762000141620000e4565b5b50919050565b60008190508160005260206000209050919050565b60006020601f8301049050919050565b600082821b905092915050565b600060088302620001ac7fffffffffffffffffffffffffffffffffffffffffffffffffffffffffffffffff826200016d565b620001b886836200016d565b95508019841693508086168417925050509392505050565b6000819050919050565b6000819050919050565b600062000205620001ff620001f984620001d0565b620001da565b620001d0565b9050919050565b6000819050919050565b6200022183620001e4565b6200023962000230826200020c565b8484546200017a565b825550505050565b600090565b6200025062000241565b6200025d81848462000216565b505050565b5b8181101562000285576200027960008262000246565b60018101905062000263565b5050565b601f821115620002d4576200029e8162000148565b620002a9846200015d565b81016020851015620002b9578190505b620002d1620002c8856200015d565b83018262000262565b50505b505050565b600082821c905092915050565b6000620002f960001984600802620002d9565b1980831691505092915050565b6000620003148383620002e6565b9150826002028217905092915050565b6200032f82620000aa565b67ffffffffffffffff8111156200034b576200034a620000b5565b5b62000357825462000113565b6200036482828562000289565b600060209050601f8311600181146200039c576000841562000387578287015190505b62000393858262000306565b86555062000403565b601f198416620003ac8662000148565b60005b82811015620003d657848901518255600182019150602085019450602081019050620003af565b86831015620003f65784890151620003f2601f891682620002e6565b8355505b6001600288020188555050505b505050505050565b6130e2806200041b6000396000f3fe608060405234801561001057600080fd5b50600436106100f55760003560e01c80636352211e11610097578063b88d4fde11610066578063b88d4fde14610296578063c87b56dd146102b2578063cf378343146102e2578063e985e9c514610312576100f5565b80636352211e146101fc57806370a082311461022c57806395d89b411461025c578063a22cb4651461027a576100f5565b8063095ea7b3116100d3578063095ea7b3146101785780631c26dc231461019457806323b872dd146101c457806342842e0e146101e0576100f5565b806301ffc9a7146100fa57806306fdde031461012a578063081812fc14610148575b600080fd5b610114600480360381019061010f9190611b1b565b610342565b6040516101219190611b63565b60405180910390f35b610132610424565b60405161013f9190611c0e565b60405180910390f35b610162600480360381019061015d9190611c66565b6104b6565b60405161016f9190611cd4565b60405180910390f35b610192600480360381019061018d9190611d1b565b61053b565b005b6101ae60048036038101906101a99190611c66565b610652565b6040516101bb9190611b63565b60405180910390f35b6101de60048036038101906101d99190611d5b565b610724565b005b6101fa60048036038101906101f59190611d5b565b610784565b005b61021660048036038101906102119190611c66565b6107a4565b6040516102239190611cd4565b60405180910390f35b61024660048036038101906102419190611dae565b610855565b6040516102539190611dea565b60405180910390f35b61026461090c565b6040516102719190611c0e565b60405180910390f35b610294600480360381019061028f9190611e31565b61099e565b005b6102b060048036038101906102ab9190611fa6565b610b1e565b005b6102cc60048036038101906102c79190611c66565b610b80565b6040516102d99190611c0e565b60405180910390f35b6102fc60048036038101906102f791906120ca565b610cd1565b6040516103099190611dea565b60405180910390f35b61032c60048036038101906103279190612126565b610d13565b6040516103399190611b63565b60405180910390f35b60007f80ac58cd000000000000000000000000000000000000000000000000000000007bffffffffffffffffffffffffffffffffffffffffffffffffffffffff1916827bffffffffffffffffffffffffffffffffffffffffffffffffffffffff1916148061040d57507f5b5e139f000000000000000000000000000000000000000000000000000000007bffffffffffffffffffffffffffffffffffffffffffffffffffffffff1916827bffffffffffffffffffffffffffffffffffffffffffffffffffffffff1916145b8061041d575061041c82610da7565b5b9050919050565b60606000805461043390612195565b80601f016020809104026020016040519081016040528092919081815260200182805461045f90612195565b80156104ac5780601f10610481576101008083540402835291602001916104ac565b820191906000526020600020905b81548152906001019060200180831161048f57829003601f168201915b5050505050905090565b60006104c182610e11565b610500576040517f08c379a00000000000000000000000000000000000000000000000000000000081526004016104f790612238565b60405180910390fd5b6004600083815260200190815260200160002060009054906101000a900473ffffffffffffffffffffffffffffffffffffffff169050919050565b6000610546826107a4565b90508073ffffffffffffffffffffffffffffffffffffffff168373ffffffffffffffffffffffffffffffffffffffff16036105b6576040517f08c379a00000000000000000000000000000000000000000000000000000000081526004016105ad906122ca565b60405180910390fd5b8073ffffffffffffffffffffffffffffffffffffffff166105d5610e7d565b73ffffffffffffffffffffffffffffffffffffffff1614806106045750610603816105fe610e7d565b610d13565b5b610643576040517f08c379a000000000000000000000000000000000000000000000000000000000815260040161063a9061235c565b60405180910390fd5b61064d8383610e85565b505050565b600061065d82610e11565b61069c576040517f08c379a0000000000000000000000000000000000000000000000000000000008152600401610693906123c8565b60405180910390fd5b3373ffffffffffffffffffffffffffffffffffffffff166106bc836107a4565b73ffffffffffffffffffffffffffffffffffffffff1614610712576040517f08c379a000000000000000000000000000000000000000000000000000000000815260040161070990612434565b60405180910390fd5b61071b82610f3e565b60019050919050565b61073561072f610e7d565b82610f91565b610774576040517f08c379a000000000000000000000000000000000000000000000000000000000815260040161076b906124c6565b60405180910390fd5b61077f83838361106f565b505050565b61079f83838360405180602001604052806000815250610b1e565b505050565b6000806002600084815260200190815260200160002060009054906101000a900473ffffffffffffffffffffffffffffffffffffffff169050600073ffffffffffffffffffffffffffffffffffffffff168173ffffffffffffffffffffffffffffffffffffffff160361084c576040517f08c379a000000000000000000000000000000000000000000000000000000000815260040161084390612558565b60405180910390fd5b80915050919050565b60008073ffffffffffffffffffffffffffffffffffffffff168273ffffffffffffffffffffffffffffffffffffffff16036108c5576040517f08c379a00000000000000000000000000000000000000000000000000000000081526004016108bc906125ea565b60405180910390fd5b600360008373ffffffffffffffffffffffffffffffffffffffff1673ffffffffffffffffffffffffffffffffffffffff168152602001908152602001600020549050919050565b60606001805461091b90612195565b80601f016020809104026020016040519081016040528092919081815260200182805461094790612195565b80156109945780601f1061096957610100808354040283529160200191610994565b820191906000526020600020905b81548152906001019060200180831161097757829003601f168201915b5050505050905090565b6109a6610e7d565b73ffffffffffffffffffffffffffffffffffffffff168273ffffffffffffffffffffffffffffffffffffffff1603610a13576040517f08c379a0000000000000000000000000000000000000000000000000000000008152600401610a0a90612656565b60405180910390fd5b8060056000610a20610e7d565b73ffffffffffffffffffffffffffffffffffffffff1673ffffffffffffffffffffffffffffffffffffffff16815260200190815260200160002060008473ffffffffffffffffffffffffffffffffffffffff1673ffffffffffffffffffffffffffffffffffffffff16815260200190815260200160002060006101000a81548160ff0219169083151502179055508173ffffffffffffffffffffffffffffffffffffffff16610acd610e7d565b73ffffffffffffffffffffffffffffffffffffffff167f17307eab39ab6107e8899845ad3d59bd9653f200f220920489ca2b5937696c3183604051610b129190611b63565b60405180910390a35050565b610b2f610b29610e7d565b83610f91565b610b6e576040517f08c379a0000000000000000000000000000000000000000000000000000000008152600401610b65906124c6565b60405180910390fd5b610b7a848484846112ca565b50505050565b6060610b8b82610e11565b610bca576040517f08c379a0000000000000000000000000000000000000000000000000000000008152600401610bc1906126e8565b60405180910390fd5b6000600660008481526020019081526020016000208054610bea90612195565b80601f0160208091040260200160405190810160405280929190818152602001828054610c1690612195565b8015610c635780601f10610c3857610100808354040283529160200191610c63565b820191906000526020600020905b815481529060010190602001808311610c4657829003601f168201915b505050505090506000610c74611326565b90506000815103610c89578192505050610ccc565b600082511115610cbe578082604051602001610ca6929190612744565b60405160208183030381529060405292505050610ccc565b610cc78461133d565b925050505b919050565b6000610cdd60076113e4565b6000610ce960076113fa565b9050610cf58482611408565b610cff81846115d5565b610d0960076113e4565b8091505092915050565b6000600560008473ffffffffffffffffffffffffffffffffffffffff1673ffffffffffffffffffffffffffffffffffffffff16815260200190815260200160002060008373ffffffffffffffffffffffffffffffffffffffff1673ffffffffffffffffffffffffffffffffffffffff16815260200190815260200160002060009054906101000a900460ff16905092915050565b60007f01ffc9a7000000000000000000000000000000000000000000000000000000007bffffffffffffffffffffffffffffffffffffffffffffffffffffffff1916827bffffffffffffffffffffffffffffffffffffffffffffffffffffffff1916149050919050565b60008073ffffffffffffffffffffffffffffffffffffffff166002600084815260200190815260200160002060009054906101000a900473ffffffffffffffffffffffffffffffffffffffff1673ffffffffffffffffffffffffffffffffffffffff1614159050919050565b600033905090565b816004600083815260200190815260200160002060006101000a81548173ffffffffffffffffffffffffffffffffffffffff021916908373ffffffffffffffffffffffffffffffffffffffff160217905550808273ffffffffffffffffffffffffffffffffffffffff16610ef8836107a4565b73ffffffffffffffffffffffffffffffffffffffff167f8c5be1e5ebec7d5bd14f71427d1e84f3dd0314c0f7b2291e5b200ac8c7c3b92560405160405180910390a45050565b610f4781611642565b6000600660008381526020019081526020016000208054610f6790612195565b905014610f8e57600660008281526020019081526020016000206000610f8d9190611a52565b5b50565b6000610f9c82610e11565b610fdb576040517f08c379a0000000000000000000000000000000000000000000000000000000008152600401610fd2906127da565b60405180910390fd5b6000610fe6836107a4565b90508073ffffffffffffffffffffffffffffffffffffffff168473ffffffffffffffffffffffffffffffffffffffff16148061105557508373ffffffffffffffffffffffffffffffffffffffff1661103d846104b6565b73ffffffffffffffffffffffffffffffffffffffff16145b8061106657506110658185610d13565b5b91505092915050565b8273ffffffffffffffffffffffffffffffffffffffff1661108f826107a4565b73ffffffffffffffffffffffffffffffffffffffff16146110e5576040517f08c379a00000000000000000000000000000000000000000000000000000000081526004016110dc9061286c565b60405180910390fd5b600073ffffffffffffffffffffffffffffffffffffffff168273ffffffffffffffffffffffffffffffffffffffff1603611154576040517f08c379a000000000000000000000000000000000000000000000000000000000815260040161114b906128fe565b60405180910390fd5b61115f838383611753565b61116a600082610e85565b6001600360008573ffffffffffffffffffffffffffffffffffffffff1673ffffffffffffffffffffffffffffffffffffffff16815260200190815260200160002060008282546111ba919061294d565b925050819055506001600360008473ffffffffffffffffffffffffffffffffffffffff1673ffffffffffffffffffffffffffffffffffffffff16815260200190815260200160002060008282546112119190612981565b92505081905550816002600083815260200190815260200160002060006101000a81548173ffffffffffffffffffffffffffffffffffffffff021916908373ffffffffffffffffffffffffffffffffffffffff160217905550808273ffffffffffffffffffffffffffffffffffffffff168473ffffffffffffffffffffffffffffffffffffffff167fddf252ad1be2c89b69c2b068fc378daa952ba7f163c4a11628f55a4df523b3ef60405160405180910390a4505050565b6112d584848461106f565b6112e184848484611758565b611320576040517f08c379a000000000000000000000000000000000000000000000000000000000815260040161131790612a27565b60405180910390fd5b50505050565b606060405180602001604052806000815250905090565b606061134882610e11565b611387576040517f08c379a000000000000000000000000000000000000000000000000000000000815260040161137e90612ab9565b60405180910390fd5b6000611391611326565b905060008151116113b157604051806020016040528060008152506113dc565b806113bb846118df565b6040516020016113cc929190612744565b6040516020818303038152906040525b915050919050565b6001816000016000828254019250508190555050565b600081600001549050919050565b600073ffffffffffffffffffffffffffffffffffffffff168273ffffffffffffffffffffffffffffffffffffffff1603611477576040517f08c379a000000000000000000000000000000000000000000000000000000000815260040161146e90612b25565b60405180910390fd5b61148081610e11565b156114c0576040517f08c379a00000000000000000000000000000000000000000000000000000000081526004016114b790612b91565b60405180910390fd5b6114cc60008383611753565b6001600360008473ffffffffffffffffffffffffffffffffffffffff1673ffffffffffffffffffffffffffffffffffffffff168152602001908152602001600020600082825461151c9190612981565b92505081905550816002600083815260200190815260200160002060006101000a81548173ffffffffffffffffffffffffffffffffffffffff021916908373ffffffffffffffffffffffffffffffffffffffff160217905550808273ffffffffffffffffffffffffffffffffffffffff16600073ffffffffffffffffffffffffffffffffffffffff167fddf252ad1be2c89b69c2b068fc378daa952ba7f163c4a11628f55a4df523b3ef60405160405180910390a45050565b6115de82610e11565b61161d576040517f08c379a000000000000000000000000000000000000000000000000000000000815260040161161490612c23565b60405180910390fd5b8060066000848152602001908152602001600020908161163d9190612def565b505050565b600061164d826107a4565b905061165b81600084611753565b611666600083610e85565b6001600360008373ffffffffffffffffffffffffffffffffffffffff1673ffffffffffffffffffffffffffffffffffffffff16815260200190815260200160002060008282546116b6919061294d565b925050819055506002600083815260200190815260200160002060006101000a81549073ffffffffffffffffffffffffffffffffffffffff021916905581600073ffffffffffffffffffffffffffffffffffffffff168273ffffffffffffffffffffffffffffffffffffffff167fddf252ad1be2c89b69c2b068fc378daa952ba7f163c4a11628f55a4df523b3ef60405160405180910390a45050565b505050565b60006117798473ffffffffffffffffffffffffffffffffffffffff16611a3f565b156118d2578373ffffffffffffffffffffffffffffffffffffffff1663150b7a026117a2610e7d565b8786866040518563ffffffff1660e01b81526004016117c49493929190612f16565b6020604051808303816000875af192505050801561180057506040513d601f19601f820116820180604052508101906117fd9190612f77565b60015b611882573d8060008114611830576040519150601f19603f3d011682016040523d82523d6000602084013e611835565b606091505b50600081510361187a576040517f08c379a000000000000000000000000000000000000000000000000000000000815260040161187190612a27565b60405180910390fd5b805181602001fd5b63150b7a0260e01b7bffffffffffffffffffffffffffffffffffffffffffffffffffffffff1916817bffffffffffffffffffffffffffffffffffffffffffffffffffffffff1916149150506118d7565b600190505b949350505050565b606060008203611926576040518060400160405280600181526020017f30000000000000000000000000000000000000000000000000000000000000008152509050611a3a565b600082905060005b6000821461195857808061194190612fa4565b915050600a82611951919061301b565b915061192e565b60008167ffffffffffffffff81111561197457611973611e7b565b5b6040519080825280601f01601f1916602001820160405280156119a65781602001600182028036833780820191505090505b5090505b60008514611a33576001826119bf919061294d565b9150600a856119ce919061304c565b60306119da9190612981565b60f81b8183815181106119f0576119ef61307d565b5b60200101907effffffffffffffffffffffffffffffffffffffffffffffffffffffffffffff1916908160001a905350600a85611a2c919061301b565b94506119aa565b8093505050505b919050565b600080823b905060008111915050919050565b508054611a5e90612195565b6000825580601f10611a705750611a8f565b601f016020900490600052602060002090810190611a8e9190611a92565b5b50565b5b80821115611aab576000816000905550600101611a93565b5090565b6000604051905090565b600080fd5b600080fd5b60007fffffffff0000000000000000000000000000000000000000000000000000000082169050919050565b611af881611ac3565b8114611b0357600080fd5b50565b600081359050611b1581611aef565b92915050565b600060208284031215611b3157611b30611ab9565b5b6000611b3f84828501611b06565b91505092915050565b60008115159050919050565b611b5d81611b48565b82525050565b6000602082019050611b786000830184611b54565b92915050565b600081519050919050565b600082825260208201905092915050565b60005b83811015611bb8578082015181840152602081019050611b9d565b60008484015250505050565b6000601f19601f8301169050919050565b6000611be082611b7e565b611bea8185611b89565b9350611bfa818560208601611b9a565b611c0381611bc4565b840191505092915050565b60006020820190508181036000830152611c288184611bd5565b905092915050565b6000819050919050565b611c4381611c30565b8114611c4e57600080fd5b50565b600081359050611c6081611c3a565b92915050565b600060208284031215611c7c57611c7b611ab9565b5b6000611c8a84828501611c51565b91505092915050565b600073ffffffffffffffffffffffffffffffffffffffff82169050919050565b6000611cbe82611c93565b9050919050565b611cce81611cb3565b82525050565b6000602082019050611ce96000830184611cc5565b92915050565b611cf881611cb3565b8114611d0357600080fd5b50565b600081359050611d1581611cef565b92915050565b60008060408385031215611d3257611d31611ab9565b5b6000611d4085828601611d06565b9250506020611d5185828601611c51565b9150509250929050565b600080600060608486031215611d7457611d73611ab9565b5b6000611d8286828701611d06565b9350506020611d9386828701611d06565b9250506040611da486828701611c51565b9150509250925092565b600060208284031215611dc457611dc3611ab9565b5b6000611dd284828501611d06565b91505092915050565b611de481611c30565b82525050565b6000602082019050611dff6000830184611ddb565b92915050565b611e0e81611b48565b8114611e1957600080fd5b50565b600081359050611e2b81611e05565b92915050565b60008060408385031215611e4857611e47611ab9565b5b6000611e5685828601611d06565b9250506020611e6785828601611e1c565b9150509250929050565b600080fd5b600080fd5b7f4e487b7100000000000000000000000000000000000000000000000000000000600052604160045260246000fd5b611eb382611bc4565b810181811067ffffffffffffffff82111715611ed257611ed1611e7b565b5b80604052505050565b6000611ee5611aaf565b9050611ef18282611eaa565b919050565b600067ffffffffffffffff821115611f1157611f10611e7b565b5b611f1a82611bc4565b9050602081019050919050565b82818337600083830152505050565b6000611f49611f4484611ef6565b611edb565b905082815260208101848484011115611f6557611f64611e76565b5b611f70848285611f27565b509392505050565b600082601f830112611f8d57611f8c611e71565b5b8135611f9d848260208601611f36565b91505092915050565b60008060008060808587031215611fc057611fbf611ab9565b5b6000611fce87828801611d06565b9450506020611fdf87828801611d06565b9350506040611ff087828801611c51565b925050606085013567ffffffffffffffff81111561201157612010611abe565b5b61201d87828801611f78565b91505092959194509250565b600067ffffffffffffffff82111561204457612043611e7b565b5b61204d82611bc4565b9050602081019050919050565b600061206d61206884612029565b611edb565b90508281526020810184848401111561208957612088611e76565b5b612094848285611f27565b509392505050565b600082601f8301126120b1576120b0611e71565b5b81356120c184826020860161205a565b91505092915050565b600080604083850312156120e1576120e0611ab9565b5b60006120ef85828601611d06565b925050602083013567ffffffffffffffff8111156121105761210f611abe565b5b61211c8582860161209c565b9150509250929050565b6000806040838503121561213d5761213c611ab9565b5b600061214b85828601611d06565b925050602061215c85828601611d06565b9150509250929050565b7f4e487b7100000000000000000000000000000000000000000000000000000000600052602260045260246000fd5b600060028204905060018216806121ad57607f821691505b6020821081036121c0576121bf612166565b5b50919050565b7f4552433732313a20617070726f76656420717565727920666f72206e6f6e657860008201527f697374656e7420746f6b656e0000000000000000000000000000000000000000602082015250565b6000612222602c83611b89565b915061222d826121c6565b604082019050919050565b6000602082019050818103600083015261225181612215565b9050919050565b7f4552433732313a20617070726f76616c20746f2063757272656e74206f776e6560008201527f7200000000000000000000000000000000000000000000000000000000000000602082015250565b60006122b4602183611b89565b91506122bf82612258565b604082019050919050565b600060208201905081810360008301526122e3816122a7565b9050919050565b7f4552433732313a20617070726f76652063616c6c6572206973206e6f74206f7760008201527f6e6572206e6f7220617070726f76656420666f7220616c6c0000000000000000602082015250565b6000612346603883611b89565b9150612351826122ea565b604082019050919050565b6000602082019050818103600083015261237581612339565b9050919050565b7f4974656d20646f6573206e6f7420657869737400000000000000000000000000600082015250565b60006123b2601383611b89565b91506123bd8261237c565b602082019050919050565b600060208201905081810360008301526123e1816123a5565b9050919050565b7f4974656d20646f6573206e6f742062656c6f6e6720746f20796f750000000000600082015250565b600061241e601b83611b89565b9150612429826123e8565b602082019050919050565b6000602082019050818103600083015261244d81612411565b9050919050565b7f4552433732313a207472616e736665722063616c6c6572206973206e6f74206f60008201527f776e6572206e6f7220617070726f766564000000000000000000000000000000602082015250565b60006124b0603183611b89565b91506124bb82612454565b604082019050919050565b600060208201905081810360008301526124df816124a3565b9050919050565b7f4552433732313a206f776e657220717565727920666f72206e6f6e657869737460008201527f656e7420746f6b656e0000000000000000000000000000000000000000000000602082015250565b6000612542602983611b89565b915061254d826124e6565b604082019050919050565b6000602082019050818103600083015261257181612535565b9050919050565b7f4552433732313a2062616c616e636520717565727920666f7220746865207a6560008201527f726f206164647265737300000000000000000000000000000000000000000000602082015250565b60006125d4602a83611b89565b91506125df82612578565b604082019050919050565b60006020820190508181036000830152612603816125c7565b9050919050565b7f4552433732313a20617070726f766520746f2063616c6c657200000000000000600082015250565b6000612640601983611b89565b915061264b8261260a565b602082019050919050565b6000602082019050818103600083015261266f81612633565b9050919050565b7f45524337323155524953746f726167653a2055524920717565727920666f722060008201527f6e6f6e6578697374656e7420746f6b656e000000000000000000000000000000602082015250565b60006126d2603183611b89565b91506126dd82612676565b604082019050919050565b60006020820190508181036000830152612701816126c5565b9050919050565b600081905092915050565b600061271e82611b7e565b6127288185612708565b9350612738818560208601611b9a565b80840191505092915050565b60006127508285612713565b915061275c8284612713565b91508190509392505050565b7f4552433732313a206f70657261746f7220717565727920666f72206e6f6e657860008201527f697374656e7420746f6b656e0000000000000000000000000000000000000000602082015250565b60006127c4602c83611b89565b91506127cf82612768565b604082019050919050565b600060208201905081810360008301526127f3816127b7565b9050919050565b7f4552433732313a207472616e73666572206f6620746f6b656e2074686174206960008201527f73206e6f74206f776e0000000000000000000000000000000000000000000000602082015250565b6000612856602983611b89565b9150612861826127fa565b604082019050919050565b6000602082019050818103600083015261288581612849565b9050919050565b7f4552433732313a207472616e7366657220746f20746865207a65726f2061646460008201527f7265737300000000000000000000000000000000000000000000000000000000602082015250565b60006128e8602483611b89565b91506128f38261288c565b604082019050919050565b60006020820190508181036000830152612917816128db565b9050919050565b7f4e487b7100000000000000000000000000000000000000000000000000000000600052601160045260246000fd5b600061295882611c30565b915061296383611c30565b925082820390508181111561297b5761297a61291e565b5b92915050565b600061298c82611c30565b915061299783611c30565b92508282019050808211156129af576129ae61291e565b5b92915050565b7f4552433732313a207472616e7366657220746f206e6f6e20455243373231526560008201527f63656976657220696d706c656d656e7465720000000000000000000000000000602082015250565b6000612a11603283611b89565b9150612a1c826129b5565b604082019050919050565b60006020820190508181036000830152612a4081612a04565b9050919050565b7f4552433732314d657461646174613a2055524920717565727920666f72206e6f60008201527f6e6578697374656e7420746f6b656e0000000000000000000000000000000000602082015250565b6000612aa3602f83611b89565b9150612aae82612a47565b604082019050919050565b60006020820190508181036000830152612ad281612a96565b9050919050565b7f4552433732313a206d696e7420746f20746865207a65726f2061646472657373600082015250565b6000612b0f602083611b89565b9150612b1a82612ad9565b602082019050919050565b60006020820190508181036000830152612b3e81612b02565b9050919050565b7f4552433732313a20746f6b656e20616c7265616479206d696e74656400000000600082015250565b6000612b7b601c83611b89565b9150612b8682612b45565b602082019050919050565b60006020820190508181036000830152612baa81612b6e565b9050919050565b7f45524337323155524953746f726167653a2055524920736574206f66206e6f6e60008201527f6578697374656e7420746f6b656e000000000000000000000000000000000000602082015250565b6000612c0d602e83611b89565b9150612c1882612bb1565b604082019050919050565b60006020820190508181036000830152612c3c81612c00565b9050919050565b60008190508160005260206000209050919050565b60006020601f8301049050919050565b600082821b905092915050565b600060088302612ca57fffffffffffffffffffffffffffffffffffffffffffffffffffffffffffffffff82612c68565b612caf8683612c68565b95508019841693508086168417925050509392505050565b6000819050919050565b6000612cec612ce7612ce284611c30565b612cc7565b611c30565b9050919050565b6000819050919050565b612d0683612cd1565b612d1a612d1282612cf3565b848454612c75565b825550505050565b600090565b612d2f612d22565b612d3a818484612cfd565b505050565b5b81811015612d5e57612d53600082612d27565b600181019050612d40565b5050565b601f821115612da357612d7481612c43565b612d7d84612c58565b81016020851015612d8c578190505b612da0612d9885612c58565b830182612d3f565b50505b505050565b600082821c905092915050565b6000612dc660001984600802612da8565b1980831691505092915050565b6000612ddf8383612db5565b9150826002028217905092915050565b612df882611b7e565b67ffffffffffffffff811115612e1157612e10611e7b565b5b612e1b8254612195565b612e26828285612d62565b600060209050601f831160018114612e595760008415612e47578287015190505b612e518582612dd3565b865550612eb9565b601f198416612e6786612c43565b60005b82811015612e8f57848901518255600182019150602085019450602081019050612e6a565b86831015612eac5784890151612ea8601f891682612db5565b8355505b6001600288020188555050505b505050505050565b600081519050919050565b600082825260208201905092915050565b6000612ee882612ec1565b612ef28185612ecc565b9350612f02818560208601611b9a565b612f0b81611bc4565b840191505092915050565b6000608082019050612f2b6000830187611cc5565b612f386020830186611cc5565b612f456040830185611ddb565b8181036060830152612f578184612edd565b905095945050505050565b600081519050612f7181611aef565b92915050565b600060208284031215612f8d57612f8c611ab9565b5b6000612f9b84828501612f62565b91505092915050565b6000612faf82611c30565b91507fffffffffffffffffffffffffffffffffffffffffffffffffffffffffffffffff8203612fe157612fe061291e565b5b600182019050919050565b7f4e487b7100000000000000000000000000000000000000000000000000000000600052601260045260246000fd5b600061302682611c30565b915061303183611c30565b92508261304157613040612fec565b5b828204905092915050565b600061305782611c30565b915061306283611c30565b92508261307257613071612fec565b5b828206905092915050565b7f4e487b7100000000000000000000000000000000000000000000000000000000600052603260045260246000fdfea2646970667358221220043be79aa580e76f800b7a15ea24d2f4229fabb8c6e945fcceecb59cd3b03edb64736f6c63430008110033",
  "linkReferences": {},
  "deployedLinkReferences": {}
}