{
  "_format": "hh-sol-artifact-1",
  "contractName": "Staking",
  "sourceName": "contracts/Staking.sol",
  "abi": [
    {
      "inputs": [
        {
          "internalType": "address",
          "name": "stakingToken",
          "type": "address"
        }
      ],
      "stateMutability": "nonpayable",
      "type": "constructor"
    },
    {
      "inputs": [],
      "name": "Staking__NeedsMoreThanZero",
      "type": "error"
    },
    {
      "inputs": [],
      "name": "Staking__TransferFailed",
      "type": "error"
    },
    {
      "inputs": [],
      "name": "Withdraw__TransferFailed",
      "type": "error"
    },
    {
      "anonymous": false,
      "inputs": [
        {
          "indexed": true,
          "internalType": "address",
          "name": "staker",
          "type": "address"
        },
        {
          "indexed": true,
          "internalType": "uint256",
          "name": "_tokenId",
          "type": "uint256"
        }
      ],
      "name": "RewardClaimed",
      "type": "event"
    },
    {
      "anonymous": false,
      "inputs": [
        {
          "indexed": true,
          "internalType": "address",
          "name": "staker",
          "type": "address"
        },
        {
          "indexed": true,
          "internalType": "uint256",
          "name": "amount",
          "type": "uint256"
        }
      ],
      "name": "StakeWithdrawn",
      "type": "event"
    },
    {
      "anonymous": false,
      "inputs": [
        {
          "indexed": true,
          "internalType": "address",
          "name": "staker",
          "type": "address"
        },
        {
          "indexed": true,
          "internalType": "uint256",
          "name": "amount",
          "type": "uint256"
        }
      ],
      "name": "Staked",
      "type": "event"
    },
    {
      "inputs": [
        {
          "internalType": "address",
          "name": "account",
          "type": "address"
        }
      ],
      "name": "getStaked",
      "outputs": [
        {
          "internalType": "uint256",
          "name": "",
          "type": "uint256"
        }
      ],
      "stateMutability": "view",
      "type": "function"
    },
    {
      "inputs": [],
      "name": "s_stakingToken",
      "outputs": [
        {
          "internalType": "contract IERC20",
          "name": "",
          "type": "address"
        }
      ],
      "stateMutability": "view",
      "type": "function"
    },
    {
      "inputs": [],
      "name": "s_totalSupply",
      "outputs": [
        {
          "internalType": "uint256",
          "name": "",
          "type": "uint256"
        }
      ],
      "stateMutability": "view",
      "type": "function"
    },
    {
      "inputs": [
        {
          "internalType": "uint256",
          "name": "amount",
          "type": "uint256"
        }
      ],
      "name": "stake",
      "outputs": [],
      "stateMutability": "nonpayable",
      "type": "function"
    },
    {
      "inputs": [
        {
          "internalType": "uint256",
          "name": "_amount",
          "type": "uint256"
        }
      ],
      "name": "withdrawStaked",
      "outputs": [],
      "stateMutability": "nonpayable",
      "type": "function"
    }
  ],
  "bytecode": "0x608060405234801561001057600080fd5b5060405161096b38038061096b833981810160405281019061003291906100e4565b600160008190555080600160006101000a81548173ffffffffffffffffffffffffffffffffffffffff021916908373ffffffffffffffffffffffffffffffffffffffff16021790555050610111565b600080fd5b600073ffffffffffffffffffffffffffffffffffffffff82169050919050565b60006100b182610086565b9050919050565b6100c1816100a6565b81146100cc57600080fd5b50565b6000815190506100de816100b8565b92915050565b6000602082840312156100fa576100f9610081565b5b6000610108848285016100cf565b91505092915050565b61084b806101206000396000f3fe608060405234801561001057600080fd5b50600436106100575760003560e01c8063399080ec1461005c5780636a74a0fc1461008c5780636d8d526c146100aa578063a694fc3a146100c6578063adca9b72146100e2575b600080fd5b61007660048036038101906100719190610576565b610100565b60405161008391906105bc565b60405180910390f35b610094610149565b6040516100a191906105bc565b60405180910390f35b6100c460048036038101906100bf9190610603565b61014f565b005b6100e060048036038101906100db9190610603565b61031d565b005b6100ea6104ed565b6040516100f7919061068f565b60405180910390f35b6000600260008373ffffffffffffffffffffffffffffffffffffffff1673ffffffffffffffffffffffffffffffffffffffff168152602001908152602001600020549050919050565b60035481565b806000810361018a576040517f9b677fa000000000000000000000000000000000000000000000000000000000815260040160405180910390fd5b81600260003373ffffffffffffffffffffffffffffffffffffffff1673ffffffffffffffffffffffffffffffffffffffff16815260200190815260200160002060008282546101d991906106d9565b9250508190555081600360008282546101f291906106d9565b925050819055506000600160009054906101000a900473ffffffffffffffffffffffffffffffffffffffff1673ffffffffffffffffffffffffffffffffffffffff1663a9059cbb33856040518363ffffffff1660e01b815260040161025892919061071c565b6020604051808303816000875af1158015610277573d6000803e3d6000fd5b505050506040513d601f19601f8201168201806040525081019061029b919061077d565b9050806102d4576040517f8ecca7d100000000000000000000000000000000000000000000000000000000815260040160405180910390fd5b823373ffffffffffffffffffffffffffffffffffffffff167f8108595eb6bad3acefa9da467d90cc2217686d5c5ac85460f8b7849c840645fc60405160405180910390a3505050565b8060008103610358576040517f9b677fa000000000000000000000000000000000000000000000000000000000815260040160405180910390fd5b81600260003373ffffffffffffffffffffffffffffffffffffffff1673ffffffffffffffffffffffffffffffffffffffff16815260200190815260200160002060008282546103a791906107aa565b9250508190555081600360008282546103c091906107aa565b925050819055506000600160009054906101000a900473ffffffffffffffffffffffffffffffffffffffff1673ffffffffffffffffffffffffffffffffffffffff166323b872dd3330866040518463ffffffff1660e01b8152600401610428939291906107de565b6020604051808303816000875af1158015610447573d6000803e3d6000fd5b505050506040513d601f19601f8201168201806040525081019061046b919061077d565b9050806104a4576040517feb4c684700000000000000000000000000000000000000000000000000000000815260040160405180910390fd5b823373ffffffffffffffffffffffffffffffffffffffff167f9e71bc8eea02a63969f509818f2dafb9254532904319f9dbda79b67bd34a5f3d60405160405180910390a3505050565b600160009054906101000a900473ffffffffffffffffffffffffffffffffffffffff1681565b600080fd5b600073ffffffffffffffffffffffffffffffffffffffff82169050919050565b600061054382610518565b9050919050565b61055381610538565b811461055e57600080fd5b50565b6000813590506105708161054a565b92915050565b60006020828403121561058c5761058b610513565b5b600061059a84828501610561565b91505092915050565b6000819050919050565b6105b6816105a3565b82525050565b60006020820190506105d160008301846105ad565b92915050565b6105e0816105a3565b81146105eb57600080fd5b50565b6000813590506105fd816105d7565b92915050565b60006020828403121561061957610618610513565b5b6000610627848285016105ee565b91505092915050565b6000819050919050565b600061065561065061064b84610518565b610630565b610518565b9050919050565b60006106678261063a565b9050919050565b60006106798261065c565b9050919050565b6106898161066e565b82525050565b60006020820190506106a46000830184610680565b92915050565b7f4e487b7100000000000000000000000000000000000000000000000000000000600052601160045260246000fd5b60006106e4826105a3565b91506106ef836105a3565b9250828203905081811115610707576107066106aa565b5b92915050565b61071681610538565b82525050565b6000604082019050610731600083018561070d565b61073e60208301846105ad565b9392505050565b60008115159050919050565b61075a81610745565b811461076557600080fd5b50565b60008151905061077781610751565b92915050565b60006020828403121561079357610792610513565b5b60006107a184828501610768565b91505092915050565b60006107b5826105a3565b91506107c0836105a3565b92508282019050808211156107d8576107d76106aa565b5b92915050565b60006060820190506107f3600083018661070d565b610800602083018561070d565b61080d60408301846105ad565b94935050505056fea2646970667358221220eba20ee9a56d5bde2c02f0cf20dda93e65f91a523724e61c95abfdd05e488f8464736f6c63430008110033",
  "linkReferences": {},
  "deployedLinkReferences": {}
}