{
  "_format": "hh-sol-artifact-1",
  "contractName": "TLCToken",
  "sourceName": "contracts/StakingToken.sol",
  "abi": [
    {
      "inputs": [],
      "stateMutability": "nonpayable",
      "type": "constructor"
    },
    {
      "anonymous": false,
      "inputs": [
        {
          "indexed": true,
          "internalType": "address",
          "name": "owner",
          "type": "address"
        },
        {
          "indexed": true,
          "internalType": "address",
          "name": "spender",
          "type": "address"
        },
        {
          "indexed": false,
          "internalType": "uint256",
          "name": "value",
          "type": "uint256"
        }
      ],
      "name": "Approval",
      "type": "event"
    },
    {
      "anonymous": false,
      "inputs": [
        {
          "indexed": true,
          "internalType": "address",
          "name": "from",
          "type": "address"
        },
        {
          "indexed": true,
          "internalType": "address",
          "name": "to",
          "type": "address"
        },
        {
          "indexed": false,
          "internalType": "uint256",
          "name": "value",
          "type": "uint256"
        }
      ],
      "name": "Transfer",
      "type": "event"
    },
    {
      "inputs": [
        {
          "internalType": "address",
          "name": "owner",
          "type": "address"
        },
        {
          "internalType": "address",
          "name": "spender",
          "type": "address"
        }
      ],
      "name": "allowance",
      "outputs": [
        {
          "internalType": "uint256",
          "name": "",
          "type": "uint256"
        }
      ],
      "stateMutability": "view",
      "type": "function"
    },
    {
      "inputs": [
        {
          "internalType": "address",
          "name": "spender",
          "type": "address"
        },
        {
          "internalType": "uint256",
          "name": "amount",
          "type": "uint256"
        }
      ],
      "name": "approve",
      "outputs": [
        {
          "internalType": "bool",
          "name": "",
          "type": "bool"
        }
      ],
      "stateMutability": "nonpayable",
      "type": "function"
    },
    {
      "inputs": [
        {
          "internalType": "address",
          "name": "account",
          "type": "address"
        }
      ],
      "name": "balanceOf",
      "outputs": [
        {
          "internalType": "uint256",
          "name": "",
          "type": "uint256"
        }
      ],
      "stateMutability": "view",
      "type": "function"
    },
    {
      "inputs": [],
      "name": "decimals",
      "outputs": [
        {
          "internalType": "uint8",
          "name": "",
          "type": "uint8"
        }
      ],
      "stateMutability": "view",
      "type": "function"
    },
    {
      "inputs": [
        {
          "internalType": "address",
          "name": "spender",
          "type": "address"
        },
        {
          "internalType": "uint256",
          "name": "subtractedValue",
          "type": "uint256"
        }
      ],
      "name": "decreaseAllowance",
      "outputs": [
        {
          "internalType": "bool",
          "name": "",
          "type": "bool"
        }
      ],
      "stateMutability": "nonpayable",
      "type": "function"
    },
    {
      "inputs": [
        {
          "internalType": "address",
          "name": "spender",
          "type": "address"
        },
        {
          "internalType": "uint256",
          "name": "addedValue",
          "type": "uint256"
        }
      ],
      "name": "increaseAllowance",
      "outputs": [
        {
          "internalType": "bool",
          "name": "",
          "type": "bool"
        }
      ],
      "stateMutability": "nonpayable",
      "type": "function"
    },
    {
      "inputs": [],
      "name": "name",
      "outputs": [
        {
          "internalType": "string",
          "name": "",
          "type": "string"
        }
      ],
      "stateMutability": "view",
      "type": "function"
    },
    {
      "inputs": [
        {
          "internalType": "address",
          "name": "recipient",
          "type": "address"
        }
      ],
      "name": "send95PercentTo",
      "outputs": [],
      "stateMutability": "nonpayable",
      "type": "function"
    },
    {
      "inputs": [],
      "name": "symbol",
      "outputs": [
        {
          "internalType": "string",
          "name": "",
          "type": "string"
        }
      ],
      "stateMutability": "view",
      "type": "function"
    },
    {
      "inputs": [],
      "name": "totalSupply",
      "outputs": [
        {
          "internalType": "uint256",
          "name": "",
          "type": "uint256"
        }
      ],
      "stateMutability": "view",
      "type": "function"
    },
    {
      "inputs": [
        {
          "internalType": "address",
          "name": "recipient",
          "type": "address"
        },
        {
          "internalType": "uint256",
          "name": "amount",
          "type": "uint256"
        }
      ],
      "name": "transfer",
      "outputs": [
        {
          "internalType": "bool",
          "name": "",
          "type": "bool"
        }
      ],
      "stateMutability": "nonpayable",
      "type": "function"
    },
    {
      "inputs": [
        {
          "internalType": "address",
          "name": "sender",
          "type": "address"
        },
        {
          "internalType": "address",
          "name": "recipient",
          "type": "address"
        },
        {
          "internalType": "uint256",
          "name": "amount",
          "type": "uint256"
        }
      ],
      "name": "transferFrom",
      "outputs": [
        {
          "internalType": "bool",
          "name": "",
          "type": "bool"
        }
      ],
      "stateMutability": "nonpayable",
      "type": "function"
    }
  ],
  "bytecode": "0x60806040523480156200001157600080fd5b506040518060400160405280600881526020017f544c43546f6b656e0000000000000000000000000000000000000000000000008152506040518060400160405280600381526020017f544c43000000000000000000000000000000000000000000000000000000000081525081600390816200008f91906200051f565b508060049081620000a191906200051f565b50505033600560006101000a81548173ffffffffffffffffffffffffffffffffffffffff021916908373ffffffffffffffffffffffffffffffffffffffff1602179055506200011d600560009054906101000a900473ffffffffffffffffffffffffffffffffffffffff166305f5e1006200012360201b60201c565b62000721565b600073ffffffffffffffffffffffffffffffffffffffff168273ffffffffffffffffffffffffffffffffffffffff160362000195576040517f08c379a00000000000000000000000000000000000000000000000000000000081526004016200018c9062000667565b60405180910390fd5b620001a9600083836200029b60201b60201c565b8060026000828254620001bd9190620006b8565b92505081905550806000808473ffffffffffffffffffffffffffffffffffffffff1673ffffffffffffffffffffffffffffffffffffffff1681526020019081526020016000206000828254620002149190620006b8565b925050819055508173ffffffffffffffffffffffffffffffffffffffff16600073ffffffffffffffffffffffffffffffffffffffff167fddf252ad1be2c89b69c2b068fc378daa952ba7f163c4a11628f55a4df523b3ef836040516200027b919062000704565b60405180910390a36200029760008383620002a060201b60201c565b5050565b505050565b505050565b600081519050919050565b7f4e487b7100000000000000000000000000000000000000000000000000000000600052604160045260246000fd5b7f4e487b7100000000000000000000000000000000000000000000000000000000600052602260045260246000fd5b600060028204905060018216806200032757607f821691505b6020821081036200033d576200033c620002df565b5b50919050565b60008190508160005260206000209050919050565b60006020601f8301049050919050565b600082821b905092915050565b600060088302620003a77fffffffffffffffffffffffffffffffffffffffffffffffffffffffffffffffff8262000368565b620003b3868362000368565b95508019841693508086168417925050509392505050565b6000819050919050565b6000819050919050565b600062000400620003fa620003f484620003cb565b620003d5565b620003cb565b9050919050565b6000819050919050565b6200041c83620003df565b620004346200042b8262000407565b84845462000375565b825550505050565b600090565b6200044b6200043c565b6200045881848462000411565b505050565b5b8181101562000480576200047460008262000441565b6001810190506200045e565b5050565b601f821115620004cf57620004998162000343565b620004a48462000358565b81016020851015620004b4578190505b620004cc620004c38562000358565b8301826200045d565b50505b505050565b600082821c905092915050565b6000620004f460001984600802620004d4565b1980831691505092915050565b60006200050f8383620004e1565b9150826002028217905092915050565b6200052a82620002a5565b67ffffffffffffffff811115620005465762000545620002b0565b5b6200055282546200030e565b6200055f82828562000484565b600060209050601f83116001811462000597576000841562000582578287015190505b6200058e858262000501565b865550620005fe565b601f198416620005a78662000343565b60005b82811015620005d157848901518255600182019150602085019450602081019050620005aa565b86831015620005f15784890151620005ed601f891682620004e1565b8355505b6001600288020188555050505b505050505050565b600082825260208201905092915050565b7f45524332303a206d696e7420746f20746865207a65726f206164647265737300600082015250565b60006200064f601f8362000606565b91506200065c8262000617565b602082019050919050565b60006020820190508181036000830152620006828162000640565b9050919050565b7f4e487b7100000000000000000000000000000000000000000000000000000000600052601160045260246000fd5b6000620006c582620003cb565b9150620006d283620003cb565b9250828201905080821115620006ed57620006ec62000689565b5b92915050565b620006fe81620003cb565b82525050565b60006020820190506200071b6000830184620006f3565b92915050565b6115b180620007316000396000f3fe608060405234801561001057600080fd5b50600436106100b45760003560e01c806370a082311161007157806370a08231146101a357806395d89b41146101d3578063a457c2d7146101f1578063a9059cbb14610221578063dd62ed3e14610251578063e00afe9714610281576100b4565b806306fdde03146100b9578063095ea7b3146100d757806318160ddd1461010757806323b872dd14610125578063313ce567146101555780633950935114610173575b600080fd5b6100c161029d565b6040516100ce9190610d34565b60405180910390f35b6100f160048036038101906100ec9190610def565b61032f565b6040516100fe9190610e4a565b60405180910390f35b61010f61034d565b60405161011c9190610e74565b60405180910390f35b61013f600480360381019061013a9190610e8f565b610357565b60405161014c9190610e4a565b60405180910390f35b61015d61044f565b60405161016a9190610efe565b60405180910390f35b61018d60048036038101906101889190610def565b610458565b60405161019a9190610e4a565b60405180910390f35b6101bd60048036038101906101b89190610f19565b610504565b6040516101ca9190610e74565b60405180910390f35b6101db61054c565b6040516101e89190610d34565b60405180910390f35b61020b60048036038101906102069190610def565b6105de565b6040516102189190610e4a565b60405180910390f35b61023b60048036038101906102369190610def565b6106c9565b6040516102489190610e4a565b60405180910390f35b61026b60048036038101906102669190610f46565b6106e7565b6040516102789190610e74565b60405180910390f35b61029b60048036038101906102969190610f19565b61076e565b005b6060600380546102ac90610fb5565b80601f01602080910402602001604051908101604052809291908181526020018280546102d890610fb5565b80156103255780601f106102fa57610100808354040283529160200191610325565b820191906000526020600020905b81548152906001019060200180831161030857829003601f168201915b5050505050905090565b600061034361033c61084a565b8484610852565b6001905092915050565b6000600254905090565b6000610364848484610a1b565b6000600160008673ffffffffffffffffffffffffffffffffffffffff1673ffffffffffffffffffffffffffffffffffffffff16815260200190815260200160002060006103af61084a565b73ffffffffffffffffffffffffffffffffffffffff1673ffffffffffffffffffffffffffffffffffffffff1681526020019081526020016000205490508281101561042f576040517f08c379a000000000000000000000000000000000000000000000000000000000815260040161042690611058565b60405180910390fd5b6104438561043b61084a565b858403610852565b60019150509392505050565b60006012905090565b60006104fa61046561084a565b84846001600061047361084a565b73ffffffffffffffffffffffffffffffffffffffff1673ffffffffffffffffffffffffffffffffffffffff16815260200190815260200160002060008873ffffffffffffffffffffffffffffffffffffffff1673ffffffffffffffffffffffffffffffffffffffff168152602001908152602001600020546104f591906110a7565b610852565b6001905092915050565b60008060008373ffffffffffffffffffffffffffffffffffffffff1673ffffffffffffffffffffffffffffffffffffffff168152602001908152602001600020549050919050565b60606004805461055b90610fb5565b80601f016020809104026020016040519081016040528092919081815260200182805461058790610fb5565b80156105d45780601f106105a9576101008083540402835291602001916105d4565b820191906000526020600020905b8154815290600101906020018083116105b757829003601f168201915b5050505050905090565b600080600160006105ed61084a565b73ffffffffffffffffffffffffffffffffffffffff1673ffffffffffffffffffffffffffffffffffffffff16815260200190815260200160002060008573ffffffffffffffffffffffffffffffffffffffff1673ffffffffffffffffffffffffffffffffffffffff168152602001908152602001600020549050828110156106aa576040517f08c379a00000000000000000000000000000000000000000000000000000000081526004016106a19061114d565b60405180910390fd5b6106be6106b561084a565b85858403610852565b600191505092915050565b60006106dd6106d661084a565b8484610a1b565b6001905092915050565b6000600160008473ffffffffffffffffffffffffffffffffffffffff1673ffffffffffffffffffffffffffffffffffffffff16815260200190815260200160002060008373ffffffffffffffffffffffffffffffffffffffff1673ffffffffffffffffffffffffffffffffffffffff16815260200190815260200160002054905092915050565b600560009054906101000a900473ffffffffffffffffffffffffffffffffffffffff1673ffffffffffffffffffffffffffffffffffffffff163373ffffffffffffffffffffffffffffffffffffffff16146107fe576040517f08c379a00000000000000000000000000000000000000000000000000000000081526004016107f5906111df565b60405180910390fd5b610847600560009054906101000a900473ffffffffffffffffffffffffffffffffffffffff16826064605f6305f5e10061083891906111ff565b6108429190611270565b610a1b565b50565b600033905090565b600073ffffffffffffffffffffffffffffffffffffffff168373ffffffffffffffffffffffffffffffffffffffff16036108c1576040517f08c379a00000000000000000000000000000000000000000000000000000000081526004016108b890611313565b60405180910390fd5b600073ffffffffffffffffffffffffffffffffffffffff168273ffffffffffffffffffffffffffffffffffffffff1603610930576040517f08c379a0000000000000000000000000000000000000000000000000000000008152600401610927906113a5565b60405180910390fd5b80600160008573ffffffffffffffffffffffffffffffffffffffff1673ffffffffffffffffffffffffffffffffffffffff16815260200190815260200160002060008473ffffffffffffffffffffffffffffffffffffffff1673ffffffffffffffffffffffffffffffffffffffff168152602001908152602001600020819055508173ffffffffffffffffffffffffffffffffffffffff168373ffffffffffffffffffffffffffffffffffffffff167f8c5be1e5ebec7d5bd14f71427d1e84f3dd0314c0f7b2291e5b200ac8c7c3b92583604051610a0e9190610e74565b60405180910390a3505050565b600073ffffffffffffffffffffffffffffffffffffffff168373ffffffffffffffffffffffffffffffffffffffff1603610a8a576040517f08c379a0000000000000000000000000000000000000000000000000000000008152600401610a8190611437565b60405180910390fd5b600073ffffffffffffffffffffffffffffffffffffffff168273ffffffffffffffffffffffffffffffffffffffff1603610af9576040517f08c379a0000000000000000000000000000000000000000000000000000000008152600401610af0906114c9565b60405180910390fd5b610b04838383610c9a565b60008060008573ffffffffffffffffffffffffffffffffffffffff1673ffffffffffffffffffffffffffffffffffffffff16815260200190815260200160002054905081811015610b8a576040517f08c379a0000000000000000000000000000000000000000000000000000000008152600401610b819061155b565b60405180910390fd5b8181036000808673ffffffffffffffffffffffffffffffffffffffff1673ffffffffffffffffffffffffffffffffffffffff16815260200190815260200160002081905550816000808573ffffffffffffffffffffffffffffffffffffffff1673ffffffffffffffffffffffffffffffffffffffff1681526020019081526020016000206000828254610c1d91906110a7565b925050819055508273ffffffffffffffffffffffffffffffffffffffff168473ffffffffffffffffffffffffffffffffffffffff167fddf252ad1be2c89b69c2b068fc378daa952ba7f163c4a11628f55a4df523b3ef84604051610c819190610e74565b60405180910390a3610c94848484610c9f565b50505050565b505050565b505050565b600081519050919050565b600082825260208201905092915050565b60005b83811015610cde578082015181840152602081019050610cc3565b60008484015250505050565b6000601f19601f8301169050919050565b6000610d0682610ca4565b610d108185610caf565b9350610d20818560208601610cc0565b610d2981610cea565b840191505092915050565b60006020820190508181036000830152610d4e8184610cfb565b905092915050565b600080fd5b600073ffffffffffffffffffffffffffffffffffffffff82169050919050565b6000610d8682610d5b565b9050919050565b610d9681610d7b565b8114610da157600080fd5b50565b600081359050610db381610d8d565b92915050565b6000819050919050565b610dcc81610db9565b8114610dd757600080fd5b50565b600081359050610de981610dc3565b92915050565b60008060408385031215610e0657610e05610d56565b5b6000610e1485828601610da4565b9250506020610e2585828601610dda565b9150509250929050565b60008115159050919050565b610e4481610e2f565b82525050565b6000602082019050610e5f6000830184610e3b565b92915050565b610e6e81610db9565b82525050565b6000602082019050610e896000830184610e65565b92915050565b600080600060608486031215610ea857610ea7610d56565b5b6000610eb686828701610da4565b9350506020610ec786828701610da4565b9250506040610ed886828701610dda565b9150509250925092565b600060ff82169050919050565b610ef881610ee2565b82525050565b6000602082019050610f136000830184610eef565b92915050565b600060208284031215610f2f57610f2e610d56565b5b6000610f3d84828501610da4565b91505092915050565b60008060408385031215610f5d57610f5c610d56565b5b6000610f6b85828601610da4565b9250506020610f7c85828601610da4565b9150509250929050565b7f4e487b7100000000000000000000000000000000000000000000000000000000600052602260045260246000fd5b60006002820490506001821680610fcd57607f821691505b602082108103610fe057610fdf610f86565b5b50919050565b7f45524332303a207472616e7366657220616d6f756e742065786365656473206160008201527f6c6c6f77616e6365000000000000000000000000000000000000000000000000602082015250565b6000611042602883610caf565b915061104d82610fe6565b604082019050919050565b6000602082019050818103600083015261107181611035565b9050919050565b7f4e487b7100000000000000000000000000000000000000000000000000000000600052601160045260246000fd5b60006110b282610db9565b91506110bd83610db9565b92508282019050808211156110d5576110d4611078565b5b92915050565b7f45524332303a2064656372656173656420616c6c6f77616e63652062656c6f7760008201527f207a65726f000000000000000000000000000000000000000000000000000000602082015250565b6000611137602583610caf565b9150611142826110db565b604082019050919050565b600060208201905081810360008301526111668161112a565b9050919050565b7f4f6e6c79206465706c6f7965722063616e2063616c6c20746869732066756e6360008201527f74696f6e00000000000000000000000000000000000000000000000000000000602082015250565b60006111c9602483610caf565b91506111d48261116d565b604082019050919050565b600060208201905081810360008301526111f8816111bc565b9050919050565b600061120a82610db9565b915061121583610db9565b925082820261122381610db9565b9150828204841483151761123a57611239611078565b5b5092915050565b7f4e487b7100000000000000000000000000000000000000000000000000000000600052601260045260246000fd5b600061127b82610db9565b915061128683610db9565b92508261129657611295611241565b5b828204905092915050565b7f45524332303a20617070726f76652066726f6d20746865207a65726f2061646460008201527f7265737300000000000000000000000000000000000000000000000000000000602082015250565b60006112fd602483610caf565b9150611308826112a1565b604082019050919050565b6000602082019050818103600083015261132c816112f0565b9050919050565b7f45524332303a20617070726f766520746f20746865207a65726f20616464726560008201527f7373000000000000000000000000000000000000000000000000000000000000602082015250565b600061138f602283610caf565b915061139a82611333565b604082019050919050565b600060208201905081810360008301526113be81611382565b9050919050565b7f45524332303a207472616e736665722066726f6d20746865207a65726f20616460008201527f6472657373000000000000000000000000000000000000000000000000000000602082015250565b6000611421602583610caf565b915061142c826113c5565b604082019050919050565b6000602082019050818103600083015261145081611414565b9050919050565b7f45524332303a207472616e7366657220746f20746865207a65726f206164647260008201527f6573730000000000000000000000000000000000000000000000000000000000602082015250565b60006114b3602383610caf565b91506114be82611457565b604082019050919050565b600060208201905081810360008301526114e2816114a6565b9050919050565b7f45524332303a207472616e7366657220616d6f756e742065786365656473206260008201527f616c616e63650000000000000000000000000000000000000000000000000000602082015250565b6000611545602683610caf565b9150611550826114e9565b604082019050919050565b6000602082019050818103600083015261157481611538565b905091905056fea264697066735822122000fd891066f3ea4a4ead8f5d92eb632b2a47721a5f12c7cef52372e3005bb3e764736f6c63430008110033",
  "linkReferences": {},
  "deployedLinkReferences": {}
}