{
  "_format": "hh-sol-artifact-1",
  "contractName": "VRFD20",
  "sourceName": "contracts/VRFD20.sol",
  "abi": [
    {
      "inputs": [
        {
          "internalType": "uint64",
          "name": "subscriptionId",
          "type": "uint64"
        },
        {
          "internalType": "bytes32",
          "name": "_secretKey",
          "type": "bytes32"
        },
        {
          "internalType": "address",
          "name": "vrfCoordinator",
          "type": "address"
        },
        {
          "internalType": "bytes32",
          "name": "_keyHash",
          "type": "bytes32"
        }
      ],
      "stateMutability": "nonpayable",
      "type": "constructor"
    },
    {
      "inputs": [
        {
          "internalType": "address",
          "name": "have",
          "type": "address"
        },
        {
          "internalType": "address",
          "name": "want",
          "type": "address"
        }
      ],
      "name": "OnlyCoordinatorCanFulfill",
      "type": "error"
    },
    {
      "anonymous": false,
      "inputs": [
        {
          "indexed": true,
          "internalType": "uint256",
          "name": "requestId",
          "type": "uint256"
        },
        {
          "indexed": true,
          "internalType": "uint256",
          "name": "result",
          "type": "uint256"
        }
      ],
      "name": "DiceLanded",
      "type": "event"
    },
    {
      "anonymous": false,
      "inputs": [
        {
          "indexed": true,
          "internalType": "uint256",
          "name": "requestId",
          "type": "uint256"
        },
        {
          "indexed": true,
          "internalType": "address",
          "name": "roller",
          "type": "address"
        }
      ],
      "name": "DiceRolled",
      "type": "event"
    },
    {
      "inputs": [
        {
          "internalType": "string",
          "name": "_word",
          "type": "string"
        }
      ],
      "name": "encryptWord",
      "outputs": [
        {
          "internalType": "bytes32",
          "name": "",
          "type": "bytes32"
        }
      ],
      "stateMutability": "view",
      "type": "function"
    },
    {
      "inputs": [
        {
          "internalType": "bytes32",
          "name": "_encryptedWord",
          "type": "bytes32"
        },
        {
          "internalType": "string",
          "name": "_word",
          "type": "string"
        }
      ],
      "name": "isCorrect",
      "outputs": [
        {
          "internalType": "bool",
          "name": "",
          "type": "bool"
        }
      ],
      "stateMutability": "view",
      "type": "function"
    },
    {
      "inputs": [
        {
          "internalType": "uint256",
          "name": "requestId",
          "type": "uint256"
        },
        {
          "internalType": "uint256[]",
          "name": "randomWords",
          "type": "uint256[]"
        }
      ],
      "name": "rawFulfillRandomWords",
      "outputs": [],
      "stateMutability": "nonpayable",
      "type": "function"
    },
    {
      "inputs": [
        {
          "internalType": "address",
          "name": "roller",
          "type": "address"
        }
      ],
      "name": "rollDice",
      "outputs": [
        {
          "internalType": "uint256",
          "name": "requestId",
          "type": "uint256"
        }
      ],
      "stateMutability": "nonpayable",
      "type": "function"
    },
    {
      "inputs": [
        {
          "internalType": "address",
          "name": "player",
          "type": "address"
        }
      ],
      "name": "word",
      "outputs": [
        {
          "internalType": "bytes32",
          "name": "",
          "type": "bytes32"
        }
      ],
      "stateMutability": "view",
      "type": "function"
    }
  ],
  "bytecode": "0x60c0604052619c40600260006101000a81548163ffffffff021916908363ffffffff1602179055506003600260046101000a81548161ffff021916908361ffff1602179055506001600260066101000a81548163ffffffff021916908363ffffffff1602179055503480156200007457600080fd5b50604051620051503803806200515083398181016040528101906200009a91906200027f565b82828073ffffffffffffffffffffffffffffffffffffffff1660808173ffffffffffffffffffffffffffffffffffffffff1681525050508060a0818152505050816000806101000a81548173ffffffffffffffffffffffffffffffffffffffff021916908373ffffffffffffffffffffffffffffffffffffffff160217905550336002600a6101000a81548173ffffffffffffffffffffffffffffffffffffffff021916908373ffffffffffffffffffffffffffffffffffffffff16021790555083600060146101000a81548167ffffffffffffffff021916908367ffffffffffffffff1602179055508060018190555050505050620002f1565b600080fd5b600067ffffffffffffffff82169050919050565b620001b9816200019a565b8114620001c557600080fd5b50565b600081519050620001d981620001ae565b92915050565b6000819050919050565b620001f481620001df565b81146200020057600080fd5b50565b6000815190506200021481620001e9565b92915050565b600073ffffffffffffffffffffffffffffffffffffffff82169050919050565b600062000247826200021a565b9050919050565b62000259816200023a565b81146200026557600080fd5b50565b60008151905062000279816200024e565b92915050565b600080600080608085870312156200029c576200029b62000195565b5b6000620002ac87828801620001c8565b9450506020620002bf8782880162000203565b9350506040620002d28782880162000268565b9250506060620002e58782880162000203565b91505092959194509250565b60805160a051614e326200031e600039600061013d01526000818161018c01526101e00152614e326000f3fe608060405234801561001057600080fd5b50600436106100575760003560e01c8063195d7de61461005c5780631fe543e31461008c57806339e3adca146100a8578063a794ca1d146100d8578063dd02d9e514610108575b600080fd5b610076600480360381019061007191906145e5565b610138565b6040516100839190614647565b60405180910390f35b6100a660048036038101906100a19190614760565b61018a565b005b6100c260048036038101906100bd919061481a565b61024a565b6040516100cf9190614647565b60405180910390f35b6100f260048036038101906100ed9190614873565b6103a6565b6040516100ff91906148ea565b60405180910390f35b610122600480360381019061011d919061481a565b6103c0565b60405161012f9190614914565b60405180910390f35b6000817f000000000000000000000000000000000000000000000000000000000000000060405160200161016d9291906149c1565b604051602081830303815290604052805190602001209050919050565b7f000000000000000000000000000000000000000000000000000000000000000073ffffffffffffffffffffffffffffffffffffffff163373ffffffffffffffffffffffffffffffffffffffff161461023c57337f00000000000000000000000000000000000000000000000000000000000000006040517f1cf993f40000000000000000000000000000000000000000000000000000000081526004016102339291906149f8565b60405180910390fd5b6102468282610744565b5050565b600080600460008473ffffffffffffffffffffffffffffffffffffffff1673ffffffffffffffffffffffffffffffffffffffff16815260200190815260200160002054036102cd576040517f08c379a00000000000000000000000000000000000000000000000000000000081526004016102c490614a7e565b60405180910390fd5b602a600460008473ffffffffffffffffffffffffffffffffffffffff1673ffffffffffffffffffffffffffffffffffffffff168152602001908152602001600020540361034f576040517f08c379a000000000000000000000000000000000000000000000000000000000815260040161034690614aea565b60405180910390fd5b61039f61039a600460008573ffffffffffffffffffffffffffffffffffffffff1673ffffffffffffffffffffffffffffffffffffffff16815260200190815260200160002054610827565b610138565b9050919050565b6000806103b283610138565b905083811491505092915050565b60006002600a9054906101000a900473ffffffffffffffffffffffffffffffffffffffff1673ffffffffffffffffffffffffffffffffffffffff163373ffffffffffffffffffffffffffffffffffffffff161461041c57600080fd5b62015180600560008473ffffffffffffffffffffffffffffffffffffffff1673ffffffffffffffffffffffffffffffffffffffff1681526020019081526020016000205461046a9190614b39565b4210156104ac576040517f08c379a00000000000000000000000000000000000000000000000000000000081526004016104a390614bb9565b60405180910390fd5b6000600460008473ffffffffffffffffffffffffffffffffffffffff1673ffffffffffffffffffffffffffffffffffffffff168152602001908152602001600020541461052e576040517f08c379a000000000000000000000000000000000000000000000000000000000815260040161052590614c25565b60405180910390fd5b60008054906101000a900473ffffffffffffffffffffffffffffffffffffffff1673ffffffffffffffffffffffffffffffffffffffff16635d3b1d30600154600060149054906101000a900467ffffffffffffffff16600260049054906101000a900461ffff16600260009054906101000a900463ffffffff16600260069054906101000a900463ffffffff166040518663ffffffff1660e01b81526004016105db959493929190614ca4565b6020604051808303816000875af11580156105fa573d6000803e3d6000fd5b505050506040513d601f19601f8201168201806040525081019061061e9190614d0c565b9050816003600083815260200190815260200160002060006101000a81548173ffffffffffffffffffffffffffffffffffffffff021916908373ffffffffffffffffffffffffffffffffffffffff160217905550602a600460008473ffffffffffffffffffffffffffffffffffffffff1673ffffffffffffffffffffffffffffffffffffffff1681526020019081526020016000208190555042600560008473ffffffffffffffffffffffffffffffffffffffff1673ffffffffffffffffffffffffffffffffffffffff168152602001908152602001600020819055508173ffffffffffffffffffffffffffffffffffffffff16817f3e7fdeab84c01ce5308321caa0b460e1c4ec3c7099223d79634d9a71d99932e360405160405180910390a3919050565b600060016101058360008151811061075f5761075e614d39565b5b60200260200101516107719190614d97565b61077b9190614b39565b905080600460006003600087815260200190815260200160002060009054906101000a900473ffffffffffffffffffffffffffffffffffffffff1673ffffffffffffffffffffffffffffffffffffffff1673ffffffffffffffffffffffffffffffffffffffff1681526020019081526020016000208190555080837f54d97c1f7e5abad75bd421455cd4dd296852a52e1ea721f2cdb66d06fa2082a960405160405180910390a3505050565b60606000604051806120a001604052806040518060400160405280600581526020017f746865726500000000000000000000000000000000000000000000000000000081525081526020016040518060400160405280600581526020017f746865697200000000000000000000000000000000000000000000000000000081525081526020016040518060400160405280600581526020017f61626f757400000000000000000000000000000000000000000000000000000081525081526020016040518060400160405280600581526020017f776f756c6400000000000000000000000000000000000000000000000000000081525081526020016040518060400160405280600581526020017f746865736500000000000000000000000000000000000000000000000000000081525081526020016040518060400160405280600581526020017f6f7468657200000000000000000000000000000000000000000000000000000081525081526020016040518060400160405280600581526020017f776f72647300000000000000000000000000000000000000000000000000000081525081526020016040518060400160405280600581526020017f636f756c6400000000000000000000000000000000000000000000000000000081525081526020016040518060400160405280600581526020017f777269746500000000000000000000000000000000000000000000000000000081525081526020016040518060400160405280600581526020017f666972737400000000000000000000000000000000000000000000000000000081525081526020016040518060400160405280600581526020017f776174657200000000000000000000000000000000000000000000000000000081525081526020016040518060400160405280600581526020017f616674657200000000000000000000000000000000000000000000000000000081525081526020016040518060400160405280600581526020017f776865726500000000000000000000000000000000000000000000000000000081525081526020016040518060400160405280600581526020017f726967687400000000000000000000000000000000000000000000000000000081525081526020016040518060400160405280600581526020017f7468696e6b00000000000000000000000000000000000000000000000000000081525081526020016040518060400160405280600581526020017f746872656500000000000000000000000000000000000000000000000000000081525081526020016040518060400160405280600581526020017f796561727300000000000000000000000000000000000000000000000000000081525081526020016040518060400160405280600581526020017f706c61636500000000000000000000000000000000000000000000000000000081525081526020016040518060400160405280600581526020017f736f756e6400000000000000000000000000000000000000000000000000000081525081526020016040518060400160405280600581526020017f677265617400000000000000000000000000000000000000000000000000000081525081526020016040518060400160405280600581526020017f616761696e00000000000000000000000000000000000000000000000000000081525081526020016040518060400160405280600581526020017f7374696c6c00000000000000000000000000000000000000000000000000000081525081526020016040518060400160405280600581526020017f657665727900000000000000000000000000000000000000000000000000000081525081526020016040518060400160405280600581526020017f736d616c6c00000000000000000000000000000000000000000000000000000081525081526020016040518060400160405280600581526020017f666f756e6400000000000000000000000000000000000000000000000000000081525081526020016040518060400160405280600581526020017f74686f736500000000000000000000000000000000000000000000000000000081525081526020016040518060400160405280600581526020017f6e6576657200000000000000000000000000000000000000000000000000000081525081526020016040518060400160405280600581526020017f756e64657200000000000000000000000000000000000000000000000000000081525081526020016040518060400160405280600581526020017f6d6967687400000000000000000000000000000000000000000000000000000081525081526020016040518060400160405280600581526020017f7768696c6500000000000000000000000000000000000000000000000000000081525081526020016040518060400160405280600581526020017f686f75736500000000000000000000000000000000000000000000000000000081525081526020016040518060400160405280600581526020017f776f726c6400000000000000000000000000000000000000000000000000000081525081526020016040518060400160405280600581526020017f62656c6f7700000000000000000000000000000000000000000000000000000081525081526020016040518060400160405280600581526020017f61736b656400000000000000000000000000000000000000000000000000000081525081526020016040518060400160405280600581526020017f676f696e6700000000000000000000000000000000000000000000000000000081525081526020016040518060400160405280600581526020017f6c6172676500000000000000000000000000000000000000000000000000000081525081526020016040518060400160405280600581526020017f756e74696c00000000000000000000000000000000000000000000000000000081525081526020016040518060400160405280600581526020017f616c6f6e6700000000000000000000000000000000000000000000000000000081525081526020016040518060400160405280600581526020017f7368616c6c00000000000000000000000000000000000000000000000000000081525081526020016040518060400160405280600581526020017f6265696e6700000000000000000000000000000000000000000000000000000081525081526020016040518060400160405280600581526020017f6f6674656e00000000000000000000000000000000000000000000000000000081525081526020016040518060400160405280600581526020017f656172746800000000000000000000000000000000000000000000000000000081525081526020016040518060400160405280600581526020017f626567616e00000000000000000000000000000000000000000000000000000081525081526020016040518060400160405280600581526020017f73696e636500000000000000000000000000000000000000000000000000000081525081526020016040518060400160405280600581526020017f737475647900000000000000000000000000000000000000000000000000000081525081526020016040518060400160405280600581526020017f6e6967687400000000000000000000000000000000000000000000000000000081525081526020016040518060400160405280600581526020017f6c6967687400000000000000000000000000000000000000000000000000000081525081526020016040518060400160405280600581526020017f61626f766500000000000000000000000000000000000000000000000000000081525081526020016040518060400160405280600581526020017f706170657200000000000000000000000000000000000000000000000000000081525081526020016040518060400160405280600581526020017f706172747300000000000000000000000000000000000000000000000000000081525081526020016040518060400160405280600581526020017f796f756e6700000000000000000000000000000000000000000000000000000081525081526020016040518060400160405280600581526020017f73746f727900000000000000000000000000000000000000000000000000000081525081526020016040518060400160405280600581526020017f706f696e7400000000000000000000000000000000000000000000000000000081525081526020016040518060400160405280600581526020017f74696d657300000000000000000000000000000000000000000000000000000081525081526020016040518060400160405280600581526020017f686561726400000000000000000000000000000000000000000000000000000081525081526020016040518060400160405280600581526020017f77686f6c6500000000000000000000000000000000000000000000000000000081525081526020016040518060400160405280600581526020017f776869746500000000000000000000000000000000000000000000000000000081525081526020016040518060400160405280600581526020017f676976656e00000000000000000000000000000000000000000000000000000081525081526020016040518060400160405280600581526020017f6d65616e7300000000000000000000000000000000000000000000000000000081525081526020016040518060400160405280600581526020017f6d7573696300000000000000000000000000000000000000000000000000000081525081526020016040518060400160405280600581526020017f6d696c657300000000000000000000000000000000000000000000000000000081525081526020016040518060400160405280600581526020017f7468696e6700000000000000000000000000000000000000000000000000000081525081526020016040518060400160405280600581526020017f746f64617900000000000000000000000000000000000000000000000000000081525081526020016040518060400160405280600581526020017f6c6174657200000000000000000000000000000000000000000000000000000081525081526020016040518060400160405280600581526020017f7573696e6700000000000000000000000000000000000000000000000000000081525081526020016040518060400160405280600581526020017f6d6f6e657900000000000000000000000000000000000000000000000000000081525081526020016040518060400160405280600581526020017f6c696e657300000000000000000000000000000000000000000000000000000081525081526020016040518060400160405280600581526020017f6f7264657200000000000000000000000000000000000000000000000000000081525081526020016040518060400160405280600581526020017f67726f757000000000000000000000000000000000000000000000000000000081525081526020016040518060400160405280600581526020017f616d6f6e6700000000000000000000000000000000000000000000000000000081525081526020016040518060400160405280600581526020017f6c6561726e00000000000000000000000000000000000000000000000000000081525081526020016040518060400160405280600581526020017f6b6e6f776e00000000000000000000000000000000000000000000000000000081525081526020016040518060400160405280600581526020017f737061636500000000000000000000000000000000000000000000000000000081525081526020016040518060400160405280600581526020017f7461626c6500000000000000000000000000000000000000000000000000000081525081526020016040518060400160405280600581526020017f6561726c7900000000000000000000000000000000000000000000000000000081525081526020016040518060400160405280600581526020017f747265657300000000000000000000000000000000000000000000000000000081525081526020016040518060400160405280600581526020017f73686f727400000000000000000000000000000000000000000000000000000081525081526020016040518060400160405280600581526020017f68616e647300000000000000000000000000000000000000000000000000000081525081526020016040518060400160405280600581526020017f737461746500000000000000000000000000000000000000000000000000000081525081526020016040518060400160405280600581526020017f626c61636b00000000000000000000000000000000000000000000000000000081525081526020016040518060400160405280600581526020017f73686f776e00000000000000000000000000000000000000000000000000000081525081526020016040518060400160405280600581526020017f73746f6f6400000000000000000000000000000000000000000000000000000081525081526020016040518060400160405280600581526020017f66726f6e7400000000000000000000000000000000000000000000000000000081525081526020016040518060400160405280600581526020017f766f69636500000000000000000000000000000000000000000000000000000081525081526020016040518060400160405280600581526020017f6b696e647300000000000000000000000000000000000000000000000000000081525081526020016040518060400160405280600581526020017f6d616b657300000000000000000000000000000000000000000000000000000081525081526020016040518060400160405280600581526020017f636f6d657300000000000000000000000000000000000000000000000000000081525081526020016040518060400160405280600581526020017f636c6f736500000000000000000000000000000000000000000000000000000081525081526020016040518060400160405280600581526020017f706f77657200000000000000000000000000000000000000000000000000000081525081526020016040518060400160405280600581526020017f6c6976656400000000000000000000000000000000000000000000000000000081525081526020016040518060400160405280600581526020017f766f77656c00000000000000000000000000000000000000000000000000000081525081526020016040518060400160405280600581526020017f74616b656e00000000000000000000000000000000000000000000000000000081525081526020016040518060400160405280600581526020017f6275696c7400000000000000000000000000000000000000000000000000000081525081526020016040518060400160405280600581526020017f686561727400000000000000000000000000000000000000000000000000000081525081526020016040518060400160405280600581526020017f726561647900000000000000000000000000000000000000000000000000000081525081526020016040518060400160405280600581526020017f717569746500000000000000000000000000000000000000000000000000000081525081526020016040518060400160405280600581526020017f636c61737300000000000000000000000000000000000000000000000000000081525081526020016040518060400160405280600581526020017f6272696e6700000000000000000000000000000000000000000000000000000081525081526020016040518060400160405280600581526020017f726f756e6400000000000000000000000000000000000000000000000000000081525081526020016040518060400160405280600581526020017f686f72736500000000000000000000000000000000000000000000000000000081525081526020016040518060400160405280600581526020017f73686f777300000000000000000000000000000000000000000000000000000081525081526020016040518060400160405280600581526020017f706965636500000000000000000000000000000000000000000000000000000081525081526020016040518060400160405280600581526020017f677265656e00000000000000000000000000000000000000000000000000000081525081526020016040518060400160405280600581526020017f7374616e6400000000000000000000000000000000000000000000000000000081525081526020016040518060400160405280600581526020017f626972647300000000000000000000000000000000000000000000000000000081525081526020016040518060400160405280600581526020017f737461727400000000000000000000000000000000000000000000000000000081525081526020016040518060400160405280600581526020017f726976657200000000000000000000000000000000000000000000000000000081525081526020016040518060400160405280600581526020017f747269656400000000000000000000000000000000000000000000000000000081525081526020016040518060400160405280600581526020017f6c6561737400000000000000000000000000000000000000000000000000000081525081526020016040518060400160405280600581526020017f6669656c6400000000000000000000000000000000000000000000000000000081525081526020016040518060400160405280600581526020017f77686f736500000000000000000000000000000000000000000000000000000081525081526020016040518060400160405280600581526020017f6769726c7300000000000000000000000000000000000000000000000000000081525081526020016040518060400160405280600581526020017f6c6561766500000000000000000000000000000000000000000000000000000081525081526020016040518060400160405280600581526020017f616464656400000000000000000000000000000000000000000000000000000081525081526020016040518060400160405280600581526020017f636f6c6f7200000000000000000000000000000000000000000000000000000081525081526020016040518060400160405280600581526020017f746869726400000000000000000000000000000000000000000000000000000081525081526020016040518060400160405280600581526020017f686f75727300000000000000000000000000000000000000000000000000000081525081526020016040518060400160405280600581526020017f6d6f76656400000000000000000000000000000000000000000000000000000081525081526020016040518060400160405280600581526020017f706c616e7400000000000000000000000000000000000000000000000000000081525081526020016040518060400160405280600581526020017f646f696e6700000000000000000000000000000000000000000000000000000081525081526020016040518060400160405280600581526020017f6e616d657300000000000000000000000000000000000000000000000000000081525081526020016040518060400160405280600581526020017f666f726d7300000000000000000000000000000000000000000000000000000081525081526020016040518060400160405280600581526020017f686561767900000000000000000000000000000000000000000000000000000081525081526020016040518060400160405280600581526020017f696465617300000000000000000000000000000000000000000000000000000081525081526020016040518060400160405280600581526020017f637269656400000000000000000000000000000000000000000000000000000081525081526020016040518060400160405280600581526020017f636865636b00000000000000000000000000000000000000000000000000000081525081526020016040518060400160405280600581526020017f666c6f6f7200000000000000000000000000000000000000000000000000000081525081526020016040518060400160405280600581526020017f626567696e00000000000000000000000000000000000000000000000000000081525081526020016040518060400160405280600581526020017f776f6d616e00000000000000000000000000000000000000000000000000000081525081526020016040518060400160405280600581526020017f616c6f6e6500000000000000000000000000000000000000000000000000000081525081526020016040518060400160405280600581526020017f706c616e6500000000000000000000000000000000000000000000000000000081525081526020016040518060400160405280600581526020017f7370656c6c00000000000000000000000000000000000000000000000000000081525081526020016040518060400160405280600581526020017f776174636800000000000000000000000000000000000000000000000000000081525081526020016040518060400160405280600581526020017f636172727900000000000000000000000000000000000000000000000000000081525081526020016040518060400160405280600581526020017f77726f746500000000000000000000000000000000000000000000000000000081525081526020016040518060400160405280600581526020017f636c65617200000000000000000000000000000000000000000000000000000081525081526020016040518060400160405280600581526020017f6e616d656400000000000000000000000000000000000000000000000000000081525081526020016040518060400160405280600581526020017f626f6f6b7300000000000000000000000000000000000000000000000000000081525081526020016040518060400160405280600581526020017f6368696c6400000000000000000000000000000000000000000000000000000081525081526020016040518060400160405280600581526020017f676c61737300000000000000000000000000000000000000000000000000000081525081526020016040518060400160405280600581526020017f68756d616e00000000000000000000000000000000000000000000000000000081525081526020016040518060400160405280600581526020017f74616b657300000000000000000000000000000000000000000000000000000081525081526020016040518060400160405280600581526020017f706172747900000000000000000000000000000000000000000000000000000081525081526020016040518060400160405280600581526020017f6275696c6400000000000000000000000000000000000000000000000000000081525081526020016040518060400160405280600581526020017f7365656d7300000000000000000000000000000000000000000000000000000081525081526020016040518060400160405280600581526020017f626c6f6f6400000000000000000000000000000000000000000000000000000081525081526020016040518060400160405280600581526020017f736964657300000000000000000000000000000000000000000000000000000081525081526020016040518060400160405280600581526020017f736576656e00000000000000000000000000000000000000000000000000000081525081526020016040518060400160405280600581526020017f6d6f75746800000000000000000000000000000000000000000000000000000081525081526020016040518060400160405280600581526020017f736f6c766500000000000000000000000000000000000000000000000000000081525081526020016040518060400160405280600581526020017f6e6f72746800000000000000000000000000000000000000000000000000000081525081526020016040518060400160405280600581526020017f76616c756500000000000000000000000000000000000000000000000000000081525081526020016040518060400160405280600581526020017f646561746800000000000000000000000000000000000000000000000000000081525081526020016040518060400160405280600581526020017f6d6179626500000000000000000000000000000000000000000000000000000081525081526020016040518060400160405280600581526020017f686170707900000000000000000000000000000000000000000000000000000081525081526020016040518060400160405280600581526020017f74656c6c7300000000000000000000000000000000000000000000000000000081525081526020016040518060400160405280600581526020017f676976657300000000000000000000000000000000000000000000000000000081525081526020016040518060400160405280600581526020017f6c6f6f6b7300000000000000000000000000000000000000000000000000000081525081526020016040518060400160405280600581526020017f736861706500000000000000000000000000000000000000000000000000000081525081526020016040518060400160405280600581526020017f6c6976657300000000000000000000000000000000000000000000000000000081525081526020016040518060400160405280600581526020017f737465707300000000000000000000000000000000000000000000000000000081525081526020016040518060400160405280600581526020017f617265617300000000000000000000000000000000000000000000000000000081525081526020016040518060400160405280600581526020017f73656e736500000000000000000000000000000000000000000000000000000081525081526020016040518060400160405280600581526020017f737065616b00000000000000000000000000000000000000000000000000000081525081526020016040518060400160405280600581526020017f666f72636500000000000000000000000000000000000000000000000000000081525081526020016040518060400160405280600581526020017f6f6365616e00000000000000000000000000000000000000000000000000000081525081526020016040518060400160405280600581526020017f737065656400000000000000000000000000000000000000000000000000000081525081526020016040518060400160405280600581526020017f776f6d656e00000000000000000000000000000000000000000000000000000081525081526020016040518060400160405280600581526020017f6d6574616c00000000000000000000000000000000000000000000000000000081525081526020016040518060400160405280600581526020017f736f75746800000000000000000000000000000000000000000000000000000081525081526020016040518060400160405280600581526020017f677261737300000000000000000000000000000000000000000000000000000081525081526020016040518060400160405280600581526020017f7363616c6500000000000000000000000000000000000000000000000000000081525081526020016040518060400160405280600581526020017f63656c6c7300000000000000000000000000000000000000000000000000000081525081526020016040518060400160405280600581526020017f6c6f77657200000000000000000000000000000000000000000000000000000081525081526020016040518060400160405280600581526020017f736c65657000000000000000000000000000000000000000000000000000000081525081526020016040518060400160405280600581526020017f77726f6e6700000000000000000000000000000000000000000000000000000081525081526020016040518060400160405280600581526020017f706167657300000000000000000000000000000000000000000000000000000081525081526020016040518060400160405280600581526020017f736869707300000000000000000000000000000000000000000000000000000081525081526020016040518060400160405280600581526020017f6e6565647300000000000000000000000000000000000000000000000000000081525081526020016040518060400160405280600581526020017f726f636b7300000000000000000000000000000000000000000000000000000081525081526020016040518060400160405280600581526020017f656967687400000000000000000000000000000000000000000000000000000081525081526020016040518060400160405280600581526020017f6d616a6f7200000000000000000000000000000000000000000000000000000081525081526020016040518060400160405280600581526020017f6c6576656c00000000000000000000000000000000000000000000000000000081525081526020016040518060400160405280600581526020017f746f74616c00000000000000000000000000000000000000000000000000000081525081526020016040518060400160405280600581526020017f616865616400000000000000000000000000000000000000000000000000000081525081526020016040518060400160405280600581526020017f726561636800000000000000000000000000000000000000000000000000000081525081526020016040518060400160405280600581526020017f737461727300000000000000000000000000000000000000000000000000000081525081526020016040518060400160405280600581526020017f73746f726500000000000000000000000000000000000000000000000000000081525081526020016040518060400160405280600581526020017f736967687400000000000000000000000000000000000000000000000000000081525081526020016040518060400160405280600581526020017f7465726d7300000000000000000000000000000000000000000000000000000081525081526020016040518060400160405280600581526020017f636174636800000000000000000000000000000000000000000000000000000081525081526020016040518060400160405280600581526020017f776f726b7300000000000000000000000000000000000000000000000000000081525081526020016040518060400160405280600581526020017f626f61726400000000000000000000000000000000000000000000000000000081525081526020016040518060400160405280600581526020017f636f76657200000000000000000000000000000000000000000000000000000081525081526020016040518060400160405280600581526020017f736f6e677300000000000000000000000000000000000000000000000000000081525081526020016040518060400160405280600581526020017f657175616c00000000000000000000000000000000000000000000000000000081525081526020016040518060400160405280600581526020017f73746f6e6500000000000000000000000000000000000000000000000000000081525081526020016040518060400160405280600581526020017f776176657300000000000000000000000000000000000000000000000000000081525081526020016040518060400160405280600581526020017f677565737300000000000000000000000000000000000000000000000000000081525081526020016040518060400160405280600581526020017f64616e636500000000000000000000000000000000000000000000000000000081525081526020016040518060400160405280600581526020017f73706f6b6500000000000000000000000000000000000000000000000000000081525081526020016040518060400160405280600581526020017f627265616b00000000000000000000000000000000000000000000000000000081525081526020016040518060400160405280600581526020017f636175736500000000000000000000000000000000000000000000000000000081525081526020016040518060400160405280600581526020017f726164696f00000000000000000000000000000000000000000000000000000081525081526020016040518060400160405280600581526020017f7765656b7300000000000000000000000000000000000000000000000000000081525081526020016040518060400160405280600581526020017f6c616e647300000000000000000000000000000000000000000000000000000081525081526020016040518060400160405280600581526020017f626173696300000000000000000000000000000000000000000000000000000081525081526020016040518060400160405280600581526020017f6c696b656400000000000000000000000000000000000000000000000000000081525081526020016040518060400160405280600581526020017f747261646500000000000000000000000000000000000000000000000000000081525081526020016040518060400160405280600581526020017f667265736800000000000000000000000000000000000000000000000000000081525081526020016040518060400160405280600581526020017f66696e616c00000000000000000000000000000000000000000000000000000081525081526020016040518060400160405280600581526020017f666967687400000000000000000000000000000000000000000000000000000081525081526020016040518060400160405280600581526020017f6d65616e7400000000000000000000000000000000000000000000000000000081525081526020016040518060400160405280600581526020017f647269766500000000000000000000000000000000000000000000000000000081525081526020016040518060400160405280600581526020017f7370656e7400000000000000000000000000000000000000000000000000000081525081526020016040518060400160405280600581526020017f6c6f63616c00000000000000000000000000000000000000000000000000000081525081526020016040518060400160405280600581526020017f776178657300000000000000000000000000000000000000000000000000000081525081526020016040518060400160405280600581526020017f6b6e6f777300000000000000000000000000000000000000000000000000000081525081526020016040518060400160405280600581526020017f747261696e00000000000000000000000000000000000000000000000000000081525081526020016040518060400160405280600581526020017f627265616400000000000000000000000000000000000000000000000000000081525081526020016040518060400160405280600581526020017f686f6d657300000000000000000000000000000000000000000000000000000081525081526020016040518060400160405280600581526020017f746565746800000000000000000000000000000000000000000000000000000081525081526020016040518060400160405280600581526020017f636f61737400000000000000000000000000000000000000000000000000000081525081526020016040518060400160405280600581526020017f746869636b00000000000000000000000000000000000000000000000000000081525081526020016040518060400160405280600581526020017f62726f776e00000000000000000000000000000000000000000000000000000081525081526020016040518060400160405280600581526020017f636c65616e00000000000000000000000000000000000000000000000000000081525081526020016040518060400160405280600581526020017f717569657400000000000000000000000000000000000000000000000000000081525081526020016040518060400160405280600581526020017f737567617200000000000000000000000000000000000000000000000000000081525081526020016040518060400160405280600581526020017f666163747300000000000000000000000000000000000000000000000000000081525081526020016040518060400160405280600581526020017f737465656c00000000000000000000000000000000000000000000000000000081525081526020016040518060400160405280600581526020017f666f72746800000000000000000000000000000000000000000000000000000081525081526020016040518060400160405280600581526020017f72756c657300000000000000000000000000000000000000000000000000000081525081526020016040518060400160405280600581526020017f6e6f74657300000000000000000000000000000000000000000000000000000081525081526020016040518060400160405280600581526020017f756e69747300000000000000000000000000000000000000000000000000000081525081526020016040518060400160405280600581526020017f706561636500000000000000000000000000000000000000000000000000000081525081526020016040518060400160405280600581526020017f6d6f6e746800000000000000000000000000000000000000000000000000000081525081526020016040518060400160405280600581526020017f766572627300000000000000000000000000000000000000000000000000000081525081526020016040518060400160405280600581526020017f736565647300000000000000000000000000000000000000000000000000000081525081526020016040518060400160405280600581526020017f68656c707300000000000000000000000000000000000000000000000000000081525081526020016040518060400160405280600581526020017f736861727000000000000000000000000000000000000000000000000000000081525081526020016040518060400160405280600581526020017f766973697400000000000000000000000000000000000000000000000000000081525081526020016040518060400160405280600581526020017f776f6f647300000000000000000000000000000000000000000000000000000081525081526020016040518060400160405280600581526020017f636869656600000000000000000000000000000000000000000000000000000081525081526020016040518060400160405280600581526020017f77616c6c7300000000000000000000000000000000000000000000000000000081525081526020016040518060400160405280600581526020017f63726f737300000000000000000000000000000000000000000000000000000081525081526020016040518060400160405280600581526020017f77696e677300000000000000000000000000000000000000000000000000000081525081526020016040518060400160405280600581526020017f67726f776e00000000000000000000000000000000000000000000000000000081525081526020016040518060400160405280600581526020017f636173657300000000000000000000000000000000000000000000000000000081525081526020016040518060400160405280600581526020017f666f6f647300000000000000000000000000000000000000000000000000000081525081526020016040518060400160405280600581526020017f63726f707300000000000000000000000000000000000000000000000000000081525081526020016040518060400160405280600581526020017f667275697400000000000000000000000000000000000000000000000000000081525081526020016040518060400160405280600581526020017f737469636b00000000000000000000000000000000000000000000000000000081525081526020016040518060400160405280600581526020017f77616e747300000000000000000000000000000000000000000000000000000081525081526020016040518060400160405280600581526020017f737461676500000000000000000000000000000000000000000000000000000081525081526020016040518060400160405280600581526020017f736865657000000000000000000000000000000000000000000000000000000081525081526020016040518060400160405280600581526020017f6e6f756e7300000000000000000000000000000000000000000000000000000081525081526020016040518060400160405280600581526020017f706c61696e00000000000000000000000000000000000000000000000000000081525081526020016040518060400160405280600581526020017f6472696e6b00000000000000000000000000000000000000000000000000000081525081526020016040518060400160405280600581526020017f626f6e657300000000000000000000000000000000000000000000000000000081525081526020016040518060400160405280600581526020017f617061727400000000000000000000000000000000000000000000000000000081525081526020016040518060400160405280600581526020017f7475726e7300000000000000000000000000000000000000000000000000000081525081525090508060018461446c9190614dc8565b610105811061447e5761447d614d39565b5b6020020151915050919050565b6000604051905090565b600080fd5b600080fd5b600080fd5b600080fd5b6000601f19601f8301169050919050565b7f4e487b7100000000000000000000000000000000000000000000000000000000600052604160045260246000fd5b6144f2826144a9565b810181811067ffffffffffffffff82111715614511576145106144ba565b5b80604052505050565b600061452461448b565b905061453082826144e9565b919050565b600067ffffffffffffffff8211156145505761454f6144ba565b5b614559826144a9565b9050602081019050919050565b82818337600083830152505050565b600061458861458384614535565b61451a565b9050828152602081018484840111156145a4576145a36144a4565b5b6145af848285614566565b509392505050565b600082601f8301126145cc576145cb61449f565b5b81356145dc848260208601614575565b91505092915050565b6000602082840312156145fb576145fa614495565b5b600082013567ffffffffffffffff8111156146195761461861449a565b5b614625848285016145b7565b91505092915050565b6000819050919050565b6146418161462e565b82525050565b600060208201905061465c6000830184614638565b92915050565b6000819050919050565b61467581614662565b811461468057600080fd5b50565b6000813590506146928161466c565b92915050565b600067ffffffffffffffff8211156146b3576146b26144ba565b5b602082029050602081019050919050565b600080fd5b60006146dc6146d784614698565b61451a565b905080838252602082019050602084028301858111156146ff576146fe6146c4565b5b835b8181101561472857806147148882614683565b845260208401935050602081019050614701565b5050509392505050565b600082601f8301126147475761474661449f565b5b81356147578482602086016146c9565b91505092915050565b6000806040838503121561477757614776614495565b5b600061478585828601614683565b925050602083013567ffffffffffffffff8111156147a6576147a561449a565b5b6147b285828601614732565b9150509250929050565b600073ffffffffffffffffffffffffffffffffffffffff82169050919050565b60006147e7826147bc565b9050919050565b6147f7816147dc565b811461480257600080fd5b50565b600081359050614814816147ee565b92915050565b6000602082840312156148305761482f614495565b5b600061483e84828501614805565b91505092915050565b6148508161462e565b811461485b57600080fd5b50565b60008135905061486d81614847565b92915050565b6000806040838503121561488a57614889614495565b5b60006148988582860161485e565b925050602083013567ffffffffffffffff8111156148b9576148b861449a565b5b6148c5858286016145b7565b9150509250929050565b60008115159050919050565b6148e4816148cf565b82525050565b60006020820190506148ff60008301846148db565b92915050565b61490e81614662565b82525050565b60006020820190506149296000830184614905565b92915050565b600081519050919050565b600081905092915050565b60005b83811015614963578082015181840152602081019050614948565b60008484015250505050565b600061497a8261492f565b614984818561493a565b9350614994818560208601614945565b80840191505092915050565b6000819050919050565b6149bb6149b68261462e565b6149a0565b82525050565b60006149cd828561496f565b91506149d982846149aa565b6020820191508190509392505050565b6149f2816147dc565b82525050565b6000604082019050614a0d60008301856149e9565b614a1a60208301846149e9565b9392505050565b600082825260208201905092915050565b7f44696365206e6f7420726f6c6c65640000000000000000000000000000000000600082015250565b6000614a68600f83614a21565b9150614a7382614a32565b602082019050919050565b60006020820190508181036000830152614a9781614a5b565b9050919050565b7f526f6c6c20696e2070726f677265737300000000000000000000000000000000600082015250565b6000614ad4601083614a21565b9150614adf82614a9e565b602082019050919050565b60006020820190508181036000830152614b0381614ac7565b9050919050565b7f4e487b7100000000000000000000000000000000000000000000000000000000600052601160045260246000fd5b6000614b4482614662565b9150614b4f83614662565b9250828201905080821115614b6757614b66614b0a565b5b92915050565b7f43616e206f6e6c792072657175657374206f6e63652070657220646179000000600082015250565b6000614ba3601d83614a21565b9150614bae82614b6d565b602082019050919050565b60006020820190508181036000830152614bd281614b96565b9050919050565b7f416c726561647920726f6c6c6564000000000000000000000000000000000000600082015250565b6000614c0f600e83614a21565b9150614c1a82614bd9565b602082019050919050565b60006020820190508181036000830152614c3e81614c02565b9050919050565b600067ffffffffffffffff82169050919050565b614c6281614c45565b82525050565b600061ffff82169050919050565b614c7f81614c68565b82525050565b600063ffffffff82169050919050565b614c9e81614c85565b82525050565b600060a082019050614cb96000830188614638565b614cc66020830187614c59565b614cd36040830186614c76565b614ce06060830185614c95565b614ced6080830184614c95565b9695505050505050565b600081519050614d068161466c565b92915050565b600060208284031215614d2257614d21614495565b5b6000614d3084828501614cf7565b91505092915050565b7f4e487b7100000000000000000000000000000000000000000000000000000000600052603260045260246000fd5b7f4e487b7100000000000000000000000000000000000000000000000000000000600052601260045260246000fd5b6000614da282614662565b9150614dad83614662565b925082614dbd57614dbc614d68565b5b828206905092915050565b6000614dd382614662565b9150614dde83614662565b9250828203905081811115614df657614df5614b0a565b5b9291505056fea2646970667358221220fcd55291c59f4e9026b7f75deb12e2e3c313752ee578797120988cb78682733364736f6c63430008110033",
  "linkReferences": {},
  "deployedLinkReferences": {}
}